:100000000C9434000C943E000C943E000C943E0082
:100010000C943E000C943E000C943E000C943E0068
:100020000C943E000C943E000C943E000C943E0058
:100030000C943E000C943E000C943E000C943E0048
:100040000C943E000C943E000C943E000C943E0038
:100050000C943E000C943E000C943E000C943E0028
:100060000C943E000C943E0011241FBECFEFD4E050
:10007000DEBFCDBF0E94C4000C9463010C9400004D
:100080008FEF85B98DE284B982E08093B100089545
:10009000FC0160E071E00E943C019B0180E090E087
:1000A00006C0B89A1092B200B89BFECF0196821794
:1000B0009307BCF3B89A80E09FEFAC01249FC00186
:1000C000259F900D349F900D11248E0F9F1F8195B9
:1000D0008093B200B89BFECF0895CF93DF93EC01DD
:1000E00011C08AEF90E00E9448008AEF90E00E94E1
:1000F00048008AEF90E00E9448008AEF90E00E945A
:1001000048002197209769F7DF91CF9108952A9AA7
:100110002D982A9890E087FF02C02B9A01C02B9857
:100120002D9A2D989F5F983011F0880FF4CF80E0C2
:1001300067FF02C02B9A01C02B982D9A2D988F5FD4
:10014000883011F0660FF4CF2A9A2B9808952A9AD6
:100150002D982A9890E087FF02C02B9A01C02B9817
:100160002D9A2D989F5F983011F0880FF4CF2B981F
:1001700090E080E0880F2D9A1C9981602D989F5FF8
:100180009830C1F72A9A08951F938FEF85B98DE2B1
:1001900084B982E08093B10088EE93E00E946D0004
:1001A000289888EE93E00E946D00289A88EE93E0EC
:1001B0000E946D0080E068E00E94870081E090E08E
:1001C0000E946D008CEE0E94A700182F81E090E045
:1001D0000E946D001F7E8CE6612F0E94870081E0E7
:1001E00090E00E946D0084E060E00E94870085E05E
:1001F00061E00E94870086E069E10E94870087E055
:100200006DE10E94870086E06AE10E94870087E036
:100210006BE00E94870086E06BE10E94870087E028
:1002200067E10E94870086E06CE10E94870087E01A
:100230006AE10E94870086E06DE10E94870087E006
:1002400066E10E94870086E06FE10E94870087E0F8
:100250006FE00E94870080E068E00E94870088EEDF
:1002600093E00E946D0080E060E00E94870088EECD
:1002700093E00E946D00EFCF97FB092E07260AD06E
:1002800077FD04D00CD006D000201AF4709561954B
:100290007F4F0895F6F7909581959F4F0895AA1B7B
:1002A000BB1B51E107C0AA1FBB1FA617B70710F061
:1002B000A61BB70B881F991F5A95A9F78095909593
:0A02C000BC01CD010895F894FFCFB2
:00000001FF
