:100000000C9476010C9493010C9493010C94A91117
:100010000C9493010C9493010C9493010C94930110
:100020000C9493010C9493010C9493010C94930100
:100030000C9493010C9493010C9493010C949301F0
:100040000C94D6020C9493010C9415110C9493010A
:100050000C9466030C9493010C9493010C949301FB
:100060000C945C030C9493010C9493010C949301F5
:10007000D50EEB0EEF0EF30EF70EFB0EFF0E030F79
:10008000070F0B0F0F0F150F190F1D0F230F260F43
:100090002C0F440F4A0F64656661756C74006D69BE
:1000A0006E696D616C00206A6F706C000D129600B5
:1000B000AA13A6002361643F5D3D3D447B0D000013
:1000C00000C2FFFF0000C2FFC00000C2FFC100006D
:1000D000C2FF000000C2C0000000C2C1000000C298
:1000E00000000000BB00000000C3000000C4C3000B
:1000F0000000C5C3000000FFC30000C4FFC3000030
:10010000C5FFC30000FFFFC30000D8D7D8D3D8D79E
:10011000D8D5D8D7D8D4D8D7D8D6D8D7D8D3D8D771
:10012000D8D5D8D7D8D4D8D7D8D6D8D7D8D3D8D761
:10013000D8D5D8D7D8D4D8D7D8D650414C20004E0F
:1001400054534300432D4F534420436F6E666967F9
:10015000204D656E7500444F4E4520202020202004
:1001600020202020202020200045584954005361A1
:10017000766520636F6E66696700446973706C61B1
:1001800079204D6F646500526573657420757074D5
:10019000696D65004D6F76652053636F7065004330
:1001A000616D2053636F706500506173736976658C
:1001B0000042696720537065656400426967205694
:1001C0006172696F00466565742F6D706800424109
:1001D000524F002047505300486569676874206299
:1001E00079005620432D5374726F6D004750532091
:1001F000506F73004120627920464300537461744C
:100200007300416767722E486F722E00486F7269E3
:100210007A6F6E0046756C6C2048554400566964D0
:10022000656F004F4646004F4E20002361763D3DEE
:100230003D3D446B0D0046432056455253494F4EB9
:100240003A202E2E2E2E2E2E2E2E004F53443A20A4
:100250002020202046433A0057524F4E4720534516
:100260005454494E4753205245564953494F4E0026
:100270002362717C6E5A4246790D004643206F6EB0
:100280006C79204D6F6465004D61783A005761725A
:100290006E3A0043656C6C730042617474657279E8
:1002A0003A0053657474696E6720203A0032303129
:1002B00038303530392D3132303000626F6F740094
:1002C000432D4F5344004E6F204461746120696E8A
:1002D00020454550524F4D004C6F6164696E672058
:1002E00066726F6D20454550524F4D0011241FBE60
:1002F000CFEFD4E0DEBFCDBF11E0A0E0B1E0E4E39A
:10030000FDE202C005900D92AC34B107D9F712E0BE
:10031000ACE4B1E001C01D92AF3EB107E1F70E942D
:10032000A0010C9498160C9495011F920F920FB691
:100330000F92112400000F900FBE0F901F90189580
:10034000CF93DF931092570189E18093550184E0A8
:10035000809356018AB38E628ABBD99ADA98DB9869
:10036000DD9A84B38F6084BBA898A998AA98AB98AB
:1003700084B38F7084BB85B3806F85BBDD98DD9AB5
:10038000AB9A80E197E220E931E0F9013197F1F78A
:100390000197D9F7AB9880E00E94710F80915601C8
:1003A00080FF06C080E068E00E941F058CE005C069
:1003B00080E068E40E941F058EE0809303010E94A4
:1003C0003D050E943C030E9444038BE083BF12BEA4
:1003D0008AEF81BF89B78D7F89BF89B7816089BF67
:1003E0008A9A0E9403110E949E117894AA9A809181
:1003F0005701877F80935701C0E9D1E0809179014F
:1004000090917A01892BE1F580914A018823C1F10D
:100410008091DD0120915701843659F58091D301F7
:100420009091D40190937D0180937C018091D501BE
:100430009091D601A091D701B091D801809380010D
:1004400090938101A0938201B09383018091D9019F
:100450009091DA019093EE028093ED0220FD0CC0A2
:100460000E943D05809157018D7F816080935701E7
:1004700003C02E7F2093570189E090E00E9456111F
:1004800080916301882309F43FC08091EE01843498
:10049000C9F50E943004A1E9B1E080916501909115
:1004A00066019C01F90182E401900D928150E1F70F
:1004B000109263018091570187FD1CC08091A501B6
:1004C0009091A6018997DCF08091A5019091A601F9
:1004D000809310018091A5019091A6018093000165
:1004E000809100010E94B70F80915701806880932E
:1004F000570105C0E0913901F0913A010995109238
:10050000520102C0109263010E946611892B11F002
:100510000E94770E8091570183FF08C0809152019D
:100520008823C9F08091560184FD15C00E944903BB
:1005300084EB90E00E945203109252010E94440307
:100540008091570183FD07C088EE93E0FE0131974B
:10055000F1F70197D9F79E9913C08091570184FD57
:100560000FC08091550180FF02C00E943D0580911F
:1005700055018E7F8093550180915701806113C092
:100580009E9B3CCF9091570194FF38CF80915501AD
:1005900080FD03C09D7F909357018160809355013A
:1005A000809157018F7E8093570128CF1F920F9221
:1005B0000FB60F9211242F933F934F935F936F9336
:1005C0007F938F939F93AF93BF93EF93FF9380910C
:1005D0004E0190914F01019790934F0180934E01EE
:1005E000019619F580914C0190914D0101969093DF
:1005F0004D0180934C018091AB019091AC010B9720
:100600004CF08091500190915101019690935101CD
:100610008093500187EE93E090934F0180934E01B9
:10062000809152018F5F8093520180914A0188230B
:1006300091F08091790190917A01892B61F08091FC
:1006400062018150809362018F5F29F488E080937A
:1006500062010E946111FF91EF91BF91AF919F9153
:100660008F917F916F915F914F913F912F910F905B
:100670000FBE0F901F9018951CBE80E180B988E9CD
:1006800081B986E88CBF08950E980B98BB98C398E3
:100690000895BB9AC3980B9A0E9A0895159BFECFA6
:1006A00083B90895FC0104C0159BFECF319683B930
:1006B00084918823C9F708951F920F920FB60F9265
:1006C00011240F900FBE0F901F9018951F920F923C
:1006D0000FB60F9211242F933F934F935F936F9315
:1006E0007F938F939F93AF93BF93CF93DF93EF93BA
:1006F000FF9373B180916301882309F09EC08091BC
:100700006901882309F043C080916A018332C1F5F1
:1007100020916B01822F8256823090F5763531F030
:10072000743421F0713511F07C3451F581E08093FF
:10073000690180916C01E82FF0E0E451FE4F93E2F3
:1007400090838F5FE82FF0E0E451FE4F20838F5FAE
:10075000E82FF0E0E451FE4F70838F5F80936C01CF
:10076000872F90E0820F911D839690936E01809366
:100770006D0110926A0110926B01A89AA9985DC050
:1007800080916B0180936A0170936B0156C06091F8
:100790006C016A3F08F04AC0A62FB0E020916D01BD
:1007A00030916E017D3069F0A451BE4F7C936F5F34
:1007B00060936C01270F311D30936E0120936D0102
:1007C0003CC0FD01E651FE4F9081ED01C551DE4F69
:1007D0008881A901491B5109481B51095F70509339
:1007E0006E0140936D012081CA0136E09695879590
:1007F0003A95E1F7835C821789F49881842F8F738F
:10080000835C891759F4A451BE4F7C936F5F60934A
:10081000640181E080936301A89803C01092630192
:10082000A99A10926C011092690107C010926C0194
:100830001092630110926901A99AFF91EF91DF91E3
:10084000CF91BF91AF919F918F917F916F915F9168
:100850004F913F912F910F900FBE0F901F901895C1
:1008600050916401565033E043E048C0E32FF0E07C
:10087000E451FE4F80813F5FE32FF0E0E451FE4FF3
:1008800020812D533F5FE32FF0E0E451FE4F708154
:100890003F5FE32FF0E03350E451FE4F6081922F31
:1008A00092959F708D53880F880F892BE42FF0E06D
:1008B000E451FE4F8083E42FEF5F513081F0972F9A
:1008C0009D53F0E02295207F892F86958695282BD1
:1008D000E451FE4F2083E42FEE5F523011F44E2F8F
:1008E00010C03C5F5350F0E09295990F990F907CA7
:1008F0006D53962BE451FE4F90834D5F552309F0C5
:10090000B5CF8FEE91E090936601809365014350DF
:10091000409367010895CF92DF92EF92FF921F9369
:10092000CF93DF93182FEB011F5F1093EE0111504F
:100930003091680150E4C52E5CE9D52E40E9E42EE3
:1009400041E0F42E1EC0109263010E944903CE01C3
:100950000E9452030E94440330E004C0C601019784
:10096000F1F7322F80916301882321F4232F2F5F29
:10097000293CA1F78CED95E0F7013197F1F701974C
:10098000D9F78091EE018117F1F6809163018130F2
:10099000D1F6309368010E943004DF91CF911F910E
:1009A000FF90EF90DF90CF9008950E944903159B30
:1009B000FECF8BE183B9159BFECF8BE183B9159BED
:1009C000FECF85E583B9159BFECF8AEA83B9159BD7
:1009D000FECF13B80E9444030895161617061CF0A4
:1009E00021E030E011C021E030E008C0A901489FBB
:1009F0009001499F300D589F300D11246150704077
:100A00005FEF6F3F750791F7C901089527E030E068
:100A1000482F50E0CA01022E02C0959587950A948E
:100A2000E2F780FF02C0DA9A01C0DA98DB9ADB981D
:100A3000215030408FEF2F3F380761F708951F9303
:100A4000162FD9980E940605812F0E940605D99A73
:100A50001F9108950F931F93182F062F85E0692F7C
:100A60000E941F0586E0612F0E941F0587E0602F0E
:100A70000E941F051F910F91089584E064E40E9475
:100A80001F0580E78A95F1F708950F931F93182F9C
:100A9000062F926085E0692F0E941F0586E0612F76
:100AA0000E941F0587E0602F0E941F051F910F9174
:100AB00008959EE1699FB00111249B01280F311D0B
:100AC000C901642F0E942A0508959EE1699FB00123
:100AD00011249B01280F311DC901642F0E94450577
:100AE00008959C01603211F460E051C0862F81535B
:100AF000893010F460534BC0603311F46AE047C092
:100B0000862F81548A3110F4665341C0862F815656
:100B10008A3110F46C533BC0683211F46FE337C074
:100B2000693211F460E433C06E3211F461E42FC015
:100B30006D3211F469E42BC06B3311F463E427C008
:100B40006A3311F464E423C06C3211F465E41FC00D
:100B50006F3311F462E41BC06C3511F466E417C006
:100B60006F3511F463EE13C06F3211F467E40FC0F8
:100B7000623211F468E40BC06C3311F46AE407C00C
:100B80006E3311F46BE403C0603409F46CE4C90102
:100B90000E942A050895EF92FF921F93CF93DF934F
:100BA000182FEA018EE1689F7001112407C0C70168
:100BB000810F911D1F5F0E94710521966881662338
:100BC000B1F7DF91CF911F91FF90EF900895EF92D1
:100BD000FF920F931F93CF93DF93082FEA01122FF9
:100BE0008EE1689F7001112408C0C701800F911D1C
:100BF0000F5F69910E94710511501123B1F7DF91C8
:100C0000CF911F910F91FF90EF900895EF92FF9277
:100C10001F93CF93DF93182FEA018EE1689F700135
:100C2000112409C0C701810F911D1F5F2196F90191
:100C300064910E9471059E01FE018491882391F7C1
:100C4000DF91CF911F91FF90EF900895DF92EF9287
:100C5000FF920F931F93CF93DF93062FEA01122F7A
:100C60009EE1D92EE82EFF240DC00D9DC001112458
:100C70000F5FFE012196E4918E0D9F1D6E2F0E9445
:100C80002A051150112389F7DF91CF911F910F9100
:100C9000FF90EF90DF9008955F926F927F928F9216
:100CA0009F92AF92BF92CF92DF92EF92FF920F93FB
:100CB0001F93CF93DF93582E762E7901602E121654
:100CC00013061CF021E030E014C0B90121E030E04F
:100CD0000AC0C901880F991FE3E0220F331FEA956C
:100CE000E1F7280F391F615070408FEF6F3F780791
:100CF00081F742175307E4F01E141F041CF041E073
:100D000050E014C0970141E050E00AC0CA01880FCA
:100D1000991F63E0440F551F6A95E1F7480F591F6B
:100D200021503040EFEF2F3F3E0781F741505040B8
:100D300006EE12E0CA01B8014AE050E00E945216E5
:100D4000F80101900020E9F78F0101501040065E84
:100D50001240C02E8EE1789EE0011124DD24A02EE9
:100D6000BB2447018A189B0810C00F2D10E0662095
:100D700029F0C8018C0F9D1F6AE004C0C8018C0FC8
:100D80009D1F60E00E942A05D394FD2CF50C8D2D4B
:100D900090E0881599054CF3F501EB51FD4FE0808B
:100DA0001082F1E0CF1629F4CE0101978F0D911D2D
:100DB00013C082E0C816A1F48091E6028D3281F45E
:100DC0000F2D10E0CE010197800F911F69E40E9462
:100DD0002A05C8018C0F9D1F6AE00E942A0506C0E3
:100DE0008F2D672D46EE52E00E94CB051C2D115031
:100DF0001F0DCE01810F911D61E40E942A051F5F26
:100E0000CE01810F911D6E2D0E947105DF91CF9152
:100E10001F910F91FF90EF90DF90CF90BF90AF9018
:100E20009F908F907F906F905F9008955F926F92E8
:100E30007F928F929F92AF92BF92CF92DF92EF926A
:100E4000FF920F931F93CF93DF93582E762E790145
:100E5000602E121613061CF021E030E014C0B90118
:100E600021E030E00AC0C901880F991F13E0220F6A
:100E7000331F1A95E1F7280F391F615070408FEF2B
:100E80006F3F780781F742175307E0F01E141F04E5
:100E90001CF041E050E014C0970141E050E00AC06E
:100EA000CA01880F991FA3E0440F551FAA95E1F7C7
:100EB000480F591F21503040EFEF2F3F3E0781F779
:100EC0004150504006EE12E0CA01B8014AE050E03D
:100ED0000E945216F80101900020E9F78F0101509D
:100EE0001040065E1240C02E8EE1789EE001112473
:100EF000DD24A02EBB2447018A189B0810C00F2DAB
:100F000010E0662029F0C8018C0F9D1F6AE004C024
:100F1000C8018C0F9D1F60E00E942A05D394FD2C10
:100F2000F50C8D2D90E0881599054CF3F501EB51EA
:100F3000FD4FE0801082F1E0CF1629F4CE01019739
:100F40008F0D911D13C082E0C816A1F48091E602B6
:100F50008D3281F40F2D10E0CE010197800F911F8B
:100F600069E40E942A05C8018C0F9D1F6AE00E9457
:100F70002A0506C08F2D672D46EE52E00E94CB0554
:100F80001C2D11501F0DCE01810F911D61E40E9497
:100F90002A051F5FCE01810F911D6E2D0E947105E4
:100FA000DF91CF911F910F91FF90EF90DF90CF9045
:100FB000BF90AF909F908F907F906F905F900895BB
:100FC000AF92BF92CF92DF92EF92FF920F931F9357
:100FD000CF93DF93E82EB62EE901A02E121613064A
:100FE0001CF021E030E014C0B90121E030E00AC07B
:100FF000C901880F991F13E0220F331F1A95E1F7DB
:10100000280F391F615070408FEF6F3F780781F7CD
:1010100088279927821B930B84179507FCF01C16D1
:101020001D061CF021E030E014C0AE0121E030E0EC
:101030000AC0C901880F991FA3E0220F331FAA9588
:10104000E1F7280F391F415050408FEF4F3F5807AD
:1010500081F741E050E0421B530B39C01C161D06BE
:101060001CF021E030E014C0BE0121E030E00AC0F5
:10107000C901880F991FE3E0220F331FEA95E1F7BA
:10108000280F391F615070408FEF6F3F780781F74D
:1010900042175307E4F01C161D061CF041E050E017
:1010A00014C09E0141E050E00AC0CA01880F991F98
:1010B00063E0440F551F6A95E1F7480F591F21500F
:1010C00030408FEF2F3F380781F74150504006EEF8
:1010D00012E0CA01B8014AE050E00E945216F8013D
:1010E00001900020E9F73197E01BF10BEC17FD07A9
:1010F00010F04E2D26C08EE1B89E60011124FF2411
:1011000010C0842F90E0AA2031F08C0D9D1D6AE064
:101110000E942A0505C08C0D9D1D60E00E9471058E
:10112000F3944F2D4E0DF80101900020E9F7CE0108
:101130008E1B9F0B2F2D30E089519D4F28173907AB
:1011400000F3842F6B2D46EE52E00E94CB05DF9119
:10115000CF911F910F91FF90EF90DF90CF90BF90B4
:10116000AF900895AF92BF92CF92DF92EF92FF922D
:101170000F931F93CF93DF93A82EB62EE90112167B
:1011800013061CF021E030E014C0B90121E030E08A
:101190000AC0C901880F991FE3E0220F331FEA95A7
:1011A000E1F7280F391F615070408FEF6F3F7807CC
:1011B00081F742175307E0F01C161D061CF041E0B2
:1011C00050E014C09E0141E050E00AC0CA01880FFF
:1011D000991F63E0440F551F6A95E1F7480F591FA7
:1011E000215030408FEF2F3F380781F7415050405A
:1011F000CA0166EE72E04AE050E00E9452168EE1AB
:10120000B89E7001112410E086EEC82E82E0D82E20
:1012100010C0842F90E0002331F08E0D9F1D6AE0F6
:101220000E942A0505C08E0D9F1D60E00E94710579
:101230001F5F412F4A0DF60101900020E9F7CE0112
:101240008E1B9F0B212F30E089519D4F28173907A6
:1012500000F3842F6B2D46EE52E00E94CB05DF9108
:10126000CF911F910F91FF90EF90DF90CF90BF90A3
:10127000AF9008957F928F929F92AF92BF92CF923C
:10128000DF92EF92FF920F931F93162F69017A015D
:10129000782E739457FF0BC0C094D094E094F094D0
:1012A0000894C11CD11CE11CF11C49E401C040E0C0
:1012B0000E945905C701B60120E836E948E950E027
:1012C0000E941516872D612FA90123E030E001E06F
:1012D0000E94B208872D8D5F612F41E40E9459055D
:1012E000C701B60120E836E948E950E00E9415162A
:1012F0006B017C01C701B60128EE33E040E050E00D
:101300000E9415164901872D8C5F612FA90124E0E9
:1013100030E00E94B208AA24BB24C501B40128E130
:101320003CEF4FEF5FEF0E94B615C60ED71EE81ECA
:10133000F91E872D885F612FA60123E030E00E940F
:10134000B208872D855F612F40ED0E9459051F91DE
:101350000F91FF90EF90DF90CF90BF90AF909F9054
:101360008F907F900895BF92CF92DF92EF92FF927D
:101370000F931F93182FB62E6A01CA016CE370E019
:101380000E94EE157B01812F6B2DA70123E030E039
:1013900000E00E94B208812F8D5F6B2D44E40E9413
:1013A00059058CE390E09C01E29EC001E39E900D04
:1013B000F29E900D1124C81AD90A812F8C5F6B2DD3
:1013C000A60122E030E001E00E94B2081F910F91D7
:1013D000FF90EF90DF90CF90BF9008959C014897C9
:1013E0008C9710F480E00895C901845490408D9743
:1013F00010F481E00895C901815790408D9710F451
:1014000082E00895C9018E5990408D9710F483E0D1
:101410000895C9018B5C90408D9710F484E0089585
:10142000C901885F90408D9710F485E0089525529A
:1014300031402D32310510F087E0089586E008959F
:101440009C0153E0880F991F5A95E1F7220F331F33
:10145000820F931F8F589F4F60E17EE00E94EE1530
:1014600061EE70E00E94EE15862F089508951F9397
:10147000CF93DF93C4E0D1E01CEE4A81440F440FC8
:10148000410F888169810E94590523961F5F103F93
:10149000A1F7DF91CF911F910895BF92CF92DF9274
:1014A000EF92FF920F931F93CF93DF93182FE62EA7
:1014B000EA0169018FE067E044EE0E945905CE0120
:1014C00064E170E00E940216262FD7FF0EC08CEE5A
:1014D0006802C00111248C0F9D1F64E070E00E941F
:1014E0000216B62EB194215010C08CEE6802C001D5
:1014F00011248C0F9D1F64E070E00E94021670950D
:1015000061957F4FE4E0BE2EB60E67E0621BE616E3
:1015100010F40E2D04C0062F611708F4012FC60128
:1015200068E070E00E940216615F623018F472E0B9
:10153000F72E06C0F62E8CE1861710F46CE1F62E1D
:1015400040913B01242F332727FD30958F2D90E0CC
:101550002817390739F047FD05C0842F6E2D40E06C
:101560000E94590560913C01262F332727FD3095B5
:10157000802F90E02817390761F067FD0AC08EE0E0
:1015800040E00E94590580E160913C0140E00E94EA
:1015900059056B2D653008F064E0E62FF0E0E35C60
:1015A000FE4F10818EE0602F412F0E94590580E18F
:1015B000602F412F0E9459058F2D6E2D45EE0E9400
:1015C0005905F0923B0100933C01DF91CF911F91AF
:1015D0000F91FF90EF90DF90CF90BF900895DF9232
:1015E000EF92FF920F931F93D82EE62E142F842F85
:1015F00065E00E94E115F82E8BEF3F2D3802C00107
:101600001124042F080F421739F02E0D8FE08D1989
:10161000622F40E00E94590517FF02C00C5FFA9448
:10162000EF0CE02FFF27E7FDF095ED5BFE4F8FE01D
:101630008D196E2D40810E9459052F2D332727FDCE
:101640003095C9011F910F91FF90EF90DF900895A1
:10165000FF920F931F93F42E890188E067E042EE1A
:101660000E94590585E167E042EE0E945905C801D4
:1016700066EF7FEF0E940216062F86EF9FEFF89E1F
:10168000102D11246E310CF00EE11E310CF01EE114
:10169000402F07FD4F5F45954C5E410F84E063E0AE
:1016A000209176010E94EF0A80937601802F63E0FB
:1016B0000E94E115482F4C5E410F83E063E02091CA
:1016C00075010E94EF0A80937501802F66E00E94E9
:1016D000E115482F4C5E410F82E063E020917401D8
:1016E0000E94EF0A80937401802F6EE00E94E11542
:1016F000482F4C5E410F81E063E0209173010E940E
:10170000EF0A80937301802F07FD8F5F8595412F2E
:10171000481B4C5E8DEF63E0209172010E94EF0A3E
:1017200080937201802F6DEF0E94E115482F4C5E6F
:10173000410F8EEF63E0209171010E94EF0A8093C8
:101740007101802F6AEF0E94E115482F4C5E410F16
:101750008FEF63E0209170010E94EF0A8093700187
:10176000802F62EF0E94E115482F4C5E410F80E010
:1017700063E020916F010E94EF0A80936F01009354
:101780004201109377011F910F91FF900895282F28
:10179000362F141615065CF4CA0165E070E00E944D
:1017A0000216462F4059443760F043E70AC0CA0189
:1017B00065E070E00E940216462F4958443708F44D
:1017C00044E7822F632F0E9459050895CF92DF923C
:1017D000EF92FF920F931F93CF93DF93C82ED62ED5
:1017E00040E5E62EFF240894E11CF11CC82FD0E050
:1017F00027960EC0142F1F5F802F6D2D0E94590554
:101800000F5F412F802F90E0C817D9079CF7D39422
:101810008D2D90E0E816F90614F00C2DF3CFDF9132
:10182000CF911F910F91FF90EF90DF90CF9008958F
:101830000F93E82FF62F241710F460E018C0842FC0
:1018400090E030E0281B390B602F70E0681B790BAB
:1018500084E690E0AC01249FC001259F900D349F49
:10186000900D11240E940216653608F064E68DE0A2
:10187000689FC00111246CE97FEF0E940216462F79
:1018800043568E2F6F2F0E9459050F910895EF92A6
:10189000FF920F931F93CF93DF93282F062FCA0138
:1018A00068E671E00E94EE1566E170E00E94EE15B8
:1018B0006D5E70E0EB01CA5FDE4FFFE0EF2EF1E0FE
:1018C000FF2EE60EF71E122F1F5FFE014491822F9E
:1018D000602F0E9459052196212FCE15DF0599F71B
:1018E000DF91CF911F910F91FF90EF900895495F85
:1018F0005F4F57FF02C040E050E062509A014F3006
:10190000510514F02EE030E0A901440F551F440F9B
:10191000551F420F531F41545F4F25E00E9426067A
:101920000895442319F047E252E002C043E252E036
:101930000E9406060895EF92FF921F93CF93DF93C4
:101940000E943D050E94370A88E893E120E931E0D2
:10195000F9013197F1F70197D9F710E080E9E82E06
:1019600081E0F82E0E948211892B49F088E893E1EA
:10197000F7013197F1F70197D9F71F5F36C00E9441
:101980006611892B91F1812F63E00E94D515C12F3B
:10199000D0E0923051F4FE01EC5FFE4F808190E088
:1019A000019681709070808315C0FE01EC5FFE4F40
:1019B000E08190FD03C06EE170E004C080910301FE
:1019C000682F70E0CC5FDE4F8E2F90E001960E9472
:1019D000021688830E943D050E94370A88EE93E034
:1019E000F7013197F1F70197D9F71C3008F4BACF16
:1019F0000E943D05DF91CF911F91FF90EF900895D8
:101A0000DF92EF92FF920F931F93CF93DF93682F94
:101A10008750883028F44BEFD42ED60E8FE009C0C3
:101A2000683018F432E0D32E02C02BEFD22ED60E3F
:101A300081E0C1E0D0E0082F10E09DE0E92EF12C1C
:101A4000E00EF11E8C2F6091780140E00E94650548
:101A5000C017D10744F0EC16FD062CF08C2F6D2D2D
:101A60004FEA0E9465052196CD31D10559F781E0F5
:101A700062E04DE152E00E9406068091560180FF2F
:101A800005C08BE062E04FE351E004C08BE062E010
:101A90004AE351E00E94060681E063E044E152E03F
:101AA0000E9406064091550141708BE063E00E9460
:101AB000910C81E064E04CE052E00E940606409107
:101AC000550142708BE064E00E94910C81E065E07A
:101AD00042E052E00E9406064091550140788BE0BA
:101AE00065E00E94910C81E066E04CEF51E00E94BD
:101AF00006064091550148708BE066E00E94910C0B
:101B000081E067E044EF51E00E94060640915501F4
:101B100040748BE067E00E94910C81E068E04CEE3D
:101B200051E00E9406064091560140748BE068E047
:101B30000E94910C8FE062E042EE51E00E940606A6
:101B400040915501407289E162E00E94910C8FE062
:101B500063E048ED51E00E9406068091560181FF46
:101B600005C089E163E043ED51E004C089E163E031
:101B70004EEC51E00E9406068FE064E045EC51E037
:101B80000E94060640915601487089E164E00E9477
:101B9000910C8FE065E04BEB51E00E94060640910E
:101BA0005501447089E165E00E94910C8FE066E088
:101BB00041EB51E00E94060640915601407889E1D0
:101BC00066E00E94910C8FE067E049EA51E00E94D4
:101BD000060640915601407189E167E00E94910C30
:101BE0008FE068E04FE951E00E94060640915601FF
:101BF000407289E168E00E94910C8FE069E044E95D
:101C000051E00E94060681E06AE047E851E00E9448
:101C1000060681E06BE04AE751E00E940606E0918B
:101C20004801F09149013296459154918FE06BE063
:101C30000E94060681E06CE04EE651E00E94060636
:101C400081E06DE049E651E00E940606D0927801FD
:101C5000DF91CF911F910F91FF90EF90DF9008954A
:101C60001F93182F682F655081E046E551E00E94D0
:101C7000060688E893E120E931E0F9013197F1F7B0
:101C80000197D9F7812F0E94000D1F910895CF93DE
:101C9000DF9380E090E066EE0E947B1681E090E0AA
:101CA0006FED0E947B1682E090E0609155010E94EA
:101CB0007B1683E090E0609156010E947B1684E0E1
:101CC00090E0609158010E947B16C0E0D0E0FE01D8
:101CD000EC5FFE4FCE018B5F9F4F60810E947B16B1
:101CE0002196CC30D10599F7DF91CF9108957F925D
:101CF0008F929F92AF92BF92CF92DF92EF92FF921C
:101D00000F931F93CF93DF93F8940E943D0586E0D5
:101D100061E044E451E00E94060684EC99E020E989
:101D200031E0F9013197F1F70197D9F780E00E948E
:101D3000000D00E0C0E9D1E0CC24C39480E2B82ECD
:101D400010E1712EB4E08B2EA8E0DA2EF2E0EF2E37
:101D5000E0E4FE2E7EE0A72E6CE0962E0E9482111B
:101D6000892B91F0802F90E0019663E170E00E9452
:101D70000216082F0E94000D88E893E1FE013197BA
:101D8000F1F70197D9F7EACF0E946611892B31F359
:101D9000E02FF0E0E331F105A8F4E85CFF4FEE0F2F
:101DA000FF1F0590F491E02D0994809156018C2538
:101DB0008093560180FF08C080E068E00E941F0504
:101DC0009092030111E06AC080E068E40E941F0560
:101DD000A0920301F7CF809155018C2523C08091FB
:101DE00055018E251FC08091550180581BC08091E0
:101DF00055018D2517C0809155018F2513C0809105
:101E000056018F251DC0809155018B250BC08091F7
:101E100056018E2515C0809156018D2511C08091E7
:101E20005501882580935501CDCF8091560180586A
:101E300007C080915601872503C0809156018B25EC
:101E400080935601BFCF0E949B0CBCCF10924D01D6
:101E500010924C018FE01BC0E0915801EF5FE170E0
:101E6000E0935801F0E0EE0FFF1FEE0FFF1FE45567
:101E7000FF4FF0934901E09348018591949190932D
:101E80003A01809339019ECF0E94470E81E10E9462
:101E9000300E98CF82E10E94300E10E0802F0E9419
:101EA000000D84EC99E0FE013197F1F70197D9F725
:101EB000112309F053CF0E943D05809157018D7F7A
:101EC000809357017894DF91CF911F910F91FF90EC
:101ED000EF90DF90CF90BF90AF909F908F907F90CA
:101EE00008951F93CF93DF93182F80E090E00E9416
:101EF0007316863E81F581E090E00E9473168F3D57
:101F000051F5112331F082E066E048ED52E00E9485
:101F1000060682E090E00E9473168093550183E0EC
:101F200090E00E9473168093560184E090E00E9436
:101F3000731680935801C0E0D0E0CE018B5F9F4FB5
:101F40000E947316FE01EC5FFE4F80832196CC3019
:101F5000D10599F708C0112331F082E066E046EC24
:101F600052E00E940606DF91CF911F9108950F93D2
:101F70001F93DF93CF93CDB7DEB7CE5BD0400FB6C4
:101F8000F894DEBF0FBECDBF182F0E943D0582E042
:101F900061E040EC52E00E94060683E062E04BEB19
:101FA00052E00E9406068BE061E00E94E60B82E0B0
:101FB00065E04DEA52E00E94060681E00E94710F42
:101FC0008091560180FF05C087E161E04FE351E059
:101FD00004C087E161E04AE351E00E94060682E026
:101FE00067E042EA52E00E94060682E068E049E9C2
:101FF00052E00E9406068DE068E043E952E00E944C
:10200000060682E069E04DE852E00E9406068EE096
:1020100069E048E852E00E94060682E064E04BE78F
:1020200052E00E94060681E560E772E00E948B04A0
:10203000DE011B9680916501909166019C01F9017A
:1020400084EB01900D928150E1F78C85813761F12D
:1020500083E06BE048E552E00E94060683E06CE016
:102060004BE452E00E94060688E06CE041E750E055
:1020700023E030E001E00E94B2084C858FE06CE084
:1020800050E023E030E00E94B20820E040E951E057
:1020900008C0FA013197F1F70197D9F72F5F283778
:1020A00019F080E197E2F5CF4B858AE067E050E0D8
:1020B00021E030E001E00E94B2088DE067E0AE016F
:1020C0004E545F4F2CE00E94E70598A9923398F494
:1020D00042E026E530E0612F70E0621773072CF0D4
:1020E0004F5F255D3F4F4730C1F7499F802D112439
:1020F0008093530106C090935301492F4295469512
:10210000477085E2489FC0011124809354018BE001
:1021100068E050E021E030E000E00E94B208409129
:10212000530188E069E050E023E030E00E944C0673
:102130004091540184E169E050E023E030E00E94E6
:102140004C0682E06BE046E352E00E94060686E51C
:102150006BE272E00E948B04DE0111962091650112
:1021600030916601C901FC018AE001900D92815015
:10217000E1F749818EE06BE050E023E030E001E0E0
:102180000E94B2084A8182E16BE050E023E030E037
:102190000E94B2086D816F5980E691E00E9471053E
:1021A000E0915801E170E0935801F0E0EE0FFF1F5D
:1021B000EE0FFF1FE455FF4FF0934901E0934801F4
:1021C0008591949190933A018093390180E593EC45
:1021D00020E931E0F9013197F1F70197D9F70E9431
:1021E0003D05809157018D7F886080935701C254CF
:1021F000DF4F0FB6F894DEBF0FBECDBFCF91DF919A
:102200001F910F910895DF93CF930F92CDB7DEB753
:1022100080EB87BBC49A83ED8DB98EB189838FB172
:1022200089830F90CF91DF9108951F920F920FB67F
:102230000F9211248F939F93EF93FF9380917B01D3
:10224000882321F48FB18093DD0107C0E0917B01E9
:10225000F0E08FB1EE52FE4F808380917B018F5F63
:1022600080937B018091790190917A0101979093FD
:102270007A01809379018091790190917A01892B7B
:1022800021F081E080934A0102C06F98929AFF91F9
:10229000EF919F918F910F900FBE0F901F90189507
:1022A0002DB130E020783070C901089592981092D5
:1022B0007B0190937A01809379016F9A81E48FB9C1
:1022C000089580917B018F5B8FB908959D9B03C01A
:1022D00020E030E015C08AEF90E020E931E0F9011C
:1022E0003197F1F70197D9F783B3282F30E085E0D4
:1022F000369527958A95E1F72095309521703070B5
:10230000C90108959C9B03C020E030E015C08AEF0E
:1023100090E020E931E0F9013197F1F70197D9F721
:1023200083B3282F30E094E0369527959A95E1F70E
:102330002095309521703070C9010895389A8BB777
:1023400080628BBF86B7816086BF8EB583608EBD8D
:1023500008951F920F920FB60F9211242F933F935F
:102360008F939F9306B600FE09C08CB59DB59093E0
:1023700085018093840186B78E7F45C080914B0193
:10238000882321F0815080934B013BC02CB53DB593
:10239000809184019091850180509F4F821793070F
:1023A000B8F48CB59DB52091840130918501821BD4
:1023B000930B909387018093860180918601909181
:1023C000870180509140909387018093860104C0DB
:1023D0001092870110928601809186019091870169
:1023E000209155018038910548F420FD05C0809169
:1023F00057018D7F80935701216001C02E7F20936C
:10240000550186B7816086BF9F918F913F912F9133
:102410000F900FBE0F901F9018950F931F938091F0
:10242000A7019091A80190938901809388018091E0
:10243000550180FD03C00E943D0579C1809157017F
:1024400081FD34C08AE0609102014AEC0E94590586
:102450008BE1609102014CEC0E94590587E060918C
:1024600003014EE90E9459058091570180FF19C070
:1024700060910301615087E04FE90E945905609126
:10248000030161508EE045EB0E9459058091550192
:1024900085FF07C060910301615085E14EE90E940C
:1024A00059058091570182608093570140918801BE
:1024B0005091890187E06091020123E030E000E063
:1024C0000E94B2088091880190918901853691051A
:1024D0007CF4809101018536C8F017E0812F60916E
:1024E00002014FE40E9465051F5F1B30B9F70EC063
:1024F00080910101853650F417E0812F609102012F
:1025000040E00E9465051F5F1B30B9F780919D0177
:1025100090919E01893C91053CF480919D019091A0
:102520009E0188539F4F94F480919D0190919E014C
:1025300064E170E00E940216AB0187E16091020144
:1025400024E030E000E00E94E00711C080919D018E
:1025500090919E0162E070E00E940216AB0187E15B
:102560006091020123E030E000E00E944C062091DF
:102570009D0130919E018091590190915A018217DD
:10258000930744F480919D0190919E0190935A018C
:10259000809359018091550181FF10C040919301B2
:1025A0005091940120919501309196018091020102
:1025B0006091030161508E5F0E944D0A8091570126
:1025C00080FF3BC020910301215080917C019091BC
:1025D0007D016AE070E00E940216AB0183E0622F89
:1025E00023E030E000E00E94160710910301115033
:1025F00060918001709181018091820190918301AD
:102600002AE030E040E050E00E9415168AE0612F99
:10261000A90124E030E00E94E0078091550185FF88
:102620000CC06091030161504091ED025091EE02A7
:1026300081E123E030E00E9416072091A50130914E
:10264000A60182E060910301409153010091540181
:102650000E94180C4091A5015091A60183E0609161
:10266000030123E030E000E00E9416078091A501FD
:102670009091A60140915301242F30E0281739078B
:102680003CF180910001481718F582E06091030148
:102690004FE40E94650583E0609103014FE40E94CE
:1026A000650584E0609103014FE40E94650585E0C3
:1026B000609103014FE40E94650586E0609103018B
:1026C0004FE40E94650587E0609103014FE42DC04F
:1026D0008091A5019091A6012817390744F58091B2
:1026E0000001841720F582E06091030140E00E9420
:1026F000650583E06091030140E00E94650584E088
:102700006091030140E00E94650585E0609103014E
:1027100040E00E94650586E06091030140E00E9470
:10272000650587E06091030140E00E9465058091A6
:10273000A5019091A601809300018091A70190913D
:10274000A801809301011092520180E090E01F9156
:102750000F9108950F931F938091550180FD03C041
:102760000E943D05F0C18091570181FD46C08AE07D
:10277000609102014AEC0E94590580E160910201DA
:1027800040ED0E9459058AE1609102014CEC0E94E3
:10279000590587E0609103014EE90E945905809137
:1027A000570180FF19C060910301615087E04FE934
:1027B0000E9459056091030161508EE045EB0E9433
:1027C00059058091550185FF07C060910301615053
:1027D00085E14EE90E9459058EE06091030141EDCB
:1027E0000E94590585E16091030142ED0E9459055F
:1027F000809157018260809357014091A7015091C9
:10280000A80187E06091020123E030E000E00E942F
:10281000B2088091A7019091A801853691057CF4BA
:1028200080910101853658F017E0812F60910201F7
:102830004FE40E9465051F5F1B30B9F715C08091FA
:10284000A7019091A8018536910574F0809101014E
:10285000853650F417E0812F6091020140E00E941C
:1028600065051F5F1B30B9F74091A3015091A4018A
:102870008DE06091020123E030E000E00E94B208A8
:10288000109102018091A3019091A4010E94EE0990
:10289000E82FF0E0EE0FFF1FE75DFE4F4081518112
:1028A00081E1612F0E94060680919D0190919E0119
:1028B000853691053CF480919D0190919E018C5943
:1028C0009F4F94F480919D0190919E016AE070E089
:1028D0000E940216AB0186E16091020124E030E023
:1028E00000E00E94E0070CC040919D0150919E01C4
:1028F00086E16091020123E030E000E00E944C0696
:1029000040919D0150919E0180918A0190918B018F
:10291000481B590B50938D0140938C018BE16091C2
:1029200002010E94C70B8091550182FF08C04091AF
:102930008C0150918D018BE168E00E94770C8091B1
:102940009D0190919E0190938B0180938A0120912B
:102950009D0130919E018091590190915A018217F9
:10296000930744F480919D0190919E0190935A01A8
:10297000809359018091550181FF10C040919301CE
:10298000509194012091950130919601809102011E
:102990006091030161508E5F0E944D0A4091A30136
:1029A0005091A401609102016F5F8BE00E94470C7F
:1029B0008091570180FF3BC02091030121508091FD
:1029C0007C0190917D016AE070E00E940216AB01EB
:1029D00083E0622F23E030E000E00E9416071091B0
:1029E00003011150609180017091810180918201F9
:1029F000909183012AE030E040E050E00E941516FB
:102A00008AE0612FA90124E030E00E94E007809174
:102A1000550185FF0CC06091030161504091ED02AA
:102A20005091EE0281E123E030E00E9416072091F0
:102A3000A5013091A60182E060910301409153010C
:102A4000009154010E94180C4091A5015091A601DB
:102A500083E06091030123E030E000E00E9416076C
:102A60008091A5019091A60140915301242F30E05F
:102A7000281739073CF180910001481718F582E0CA
:102A8000609103014FE40E94650583E060910301BA
:102A90004FE40E94650584E0609103014FE40E94C9
:102AA000650585E0609103014FE40E94650586E0BD
:102AB000609103014FE40E94650587E06091030186
:102AC0004FE42DC08091A5019091A60128173907E8
:102AD00044F580910001841720F582E060910301A4
:102AE00040E00E94650583E06091030140E00E94A0
:102AF000650584E06091030140E00E94650585E082
:102B00006091030140E00E94650586E06091030149
:102B100040E00E94650587E06091030140E00E946B
:102B2000650540914C0150914D0188E06091030191
:102B30000E94B30940915001509151018FE0609182
:102B400003010E94B3098091A5019091A601809391
:102B500000018091A7019091A8018093010110923A
:102B6000520180E090E01F910F910895629FD00183
:102B7000739FF001829FE00DF11D649FE00DF11D38
:102B8000929FF00D839FF00D749FF00D659FF00DE7
:102B90009927729FB00DE11DF91F639FB00DE11DD4
:102BA000F91FBD01CF0111240895991B79E004C0DC
:102BB000991F961708F0961B881F7A95C9F780957C
:102BC000089587FB082E062687FD819567FD619590
:102BD000ECDF0EF4919507FC81950895AA1BBB1BB1
:102BE00051E107C0AA1FBB1FA617B70710F0A61B0D
:102BF000B70B881F991F5A95A9F780959095BC012E
:102C0000CD01089597FB092E07260AD077FD04D041
:102C1000E5DF06D000201AF4709561957F4F089586
:102C2000F6F7909581959F4F089597FB092E0526FD
:102C30000ED057FD04D014D00AD0001C38F45095A3
:102C40004095309521953F4F4F4F5F4F0895F6F7D0
:102C500090958095709561957F4F8F4F9F4F089508
:102C6000A1E21A2EAA1BBB1BFD010DC0AA1FBB1F90
:102C7000EE1FFF1FA217B307E407F50720F0A21B02
:102C8000B30BE40BF50B661F771F881F991F1A946F
:102C900069F760957095809590959B01AC01BD0199
:102CA000CF010895FB019F01E8944230C4F0453202
:102CB000B4F44A3029F497FB1EF4909581959F4F08
:102CC000642F77270E94EE15805D8A330CF0895DB2
:102CD0008193CB010097A1F716F45DE25193108226
:102CE000C9010C948816E199FECF9FBB8EBBE09A78
:102CF00099278DB30895262FE199FECF9FBB8EBBF8
:102D00002DBB0FB6F894E29AE19A0FBE0196089592
:102D1000DC01FC01672F71917723E1F7329704C042
:102D20007C916D9370836291AE17BF07C8F30895CD
:042D3000F894FFCF45
:102D3400FFFF010E050500190500050A00190A0028
:102D4400FF4E4500452000534500532000535700D3
:102D54005720004E57004E20001101140117011A8C
:102D6400011D012001230126010D12FFFFE1E1E213
:0C2D7400E3E30178797A7B7CAC00017B02
:00000001FF
