:100000000C94B6010C94D3010C94D3010C94861378
:100010000C94D3010C94D3010C94D3010C94D30110
:100020000C94D3010C94D3010C94D3010C94D30100
:100030000C94D3010C94D3010C94D3010C94D301F0
:100040000C940E030C94D3010C94F2120C94D30173
:100050000C948F030C94D3010C94D3010C94D30112
:100060000C9485030C94D3010C94D3010C94D3010C
:100070006C10821086108A108E10921096109A10B2
:100080009E10A210A610AC10B010B410BA10BD1083
:10009000C310DB10E11064656661756C74006D69F6
:1000A0006E696D616C00206A6F706C00EA139600D7
:1000B000E6199E0023626F3F5D3D3D45470D000000
:1000C00000C2FFFF0000C2FFC00000C2FFC100006D
:1000D000C2FF000000C2C0000000C2C1000000C298
:1000E00000000000BB00000000C3000000C4C3000B
:1000F0000000C5C3000000FFC30000C4FFC3000030
:10010000C5FFC30000FFFFC300006C617420202006
:1001100020203A006C6F6E67202020203A006D612D
:10012000782054696D653A006D617820637572724C
:100130003A006D696E20566F6C743A006D617820DC
:10014000446973743A006D617820537064203A00FA
:100150006D617820416C74203A00D8D7D8D3D8D7B5
:10016000D8D5D8D7D8D4D8D7D8D6D8D7D8D3D8D721
:10017000D8D5D8D7D8D4D8D7D8D6D8D7D8D3D8D711
:10018000D8D5D8D7D8D4D8D7D8D650414C20004EBF
:1001900054534300432D4F534420436F6E666967A9
:1001A000204D656E7500444F4E45202020202020B4
:1001B0002020202020202020004558495400536151
:1001C000766520636F6E66696700446973706C6161
:1001D00079204D6F64650052657365742075707485
:1001E000696D65004D6F76652053636F70650043E0
:1001F000616D2053636F706500506173736976653C
:100200000042696720537065656400426967205643
:100210006172696F00466565742F6D7068004241B8
:10022000524F002047505300486569676874206248
:1002300079005620432D5374726F6D004750532040
:10024000506F7300412062792046430053746174FB
:100250007300416767722E486F722E00486F726993
:100260007A6F6E0046756C6C204855440056696480
:10027000656F004F4646004F4E20002362763D3D9D
:100280003D3D446C0D004E432056455253494F4E60
:100290003A202E2E2E2E2E2E2E2E004F53443A2054
:1002A0002020202046433A0057524F4E47204E41CF
:1002B0005649444154412056455253494F4E004FF0
:1002C00053443A202020202046433A0057524F4EB4
:1002D000472053455454494E47532052455649539D
:1002E000494F4E002362717C6E5A4246790D0023BD
:1002F00063753D49665245760D004E6176694374DB
:10030000726C204D6F6465004D61783A00576172E0
:100310006E3A0043656C6C73004261747465727967
:100320003A0053657474696E6720203A00323031A8
:1003300038303530392D3132303000626F6F740013
:10034000432D4F5344004E6F204461746120696E09
:1003500020454550524F4D004C6F6164696E6720D7
:1003600066726F6D20454550524F4D0011241FBEDF
:10037000CFEFD4E0DEBFCDBF11E0A0E0B1E0E2E41A
:10038000FBE302C005900D92AC34B107D9F713E03E
:10039000ACE4B1E001C01D92A930B107E1F70E94C1
:1003A000E0010C949F1D0C94D5011F920F920FB683
:1003B0000F92112400000F900FBE0F901F90189500
:1003C000CF93DF93109256011092570189E18093E9
:1003D00055018AB38E628ABBD99ADA98DB98DD9A86
:1003E00084B38F6084BBA898A998AA98AB9884B36B
:1003F0008F7084BB85B3806F85BBDD98DD9AAB9A27
:1004000080E197E220E931E0F9013197F1F70197B6
:10041000D9F7AB9880E00E9408118091560180FFC7
:1004200006C080E068E00E9448058CE005C080E0DE
:1004300068E40E9448058EE0809303010E946605EF
:100440000E9465030E946D038BE083BF12BE8AEF9A
:1004500081BF89B78D7F89BF89B7816089BF8A9A3B
:100460000E94E0120E947B137894AA9A809157010F
:10047000877F809357010E94FE04C0E9D1E08091FC
:10048000790190917A01892BE1F580914A018823C5
:10049000C1F180919D0120915701843659F58091D9
:1004A00093019091940190937D0180937C018091C0
:1004B000950190919601A0919701B0919801809338
:1004C000800190938101A0938201B0938301809178
:1004D000990190919A01909308038093070320FD5E
:1004E0000CC00E946605809157018D7F81608093CA
:1004F000570103C02E7F2093570189E090E00E94AE
:100500003313809163018823B9F1809108028F34FD
:1005100089F50E945904A4EAB1E0809165019091A7
:1005200066019C01F90184E501900D928150E1F78B
:10053000109263018091570187FD16C08091DD0103
:100540008932D0F08091DD01809310018091DD012E
:1005500080930001809100010E944E11809157010B
:1005600080688093570108C0E0913901F0913A0109
:10057000099502C0109263010E944313892B11F068
:100580000E940E108091570183FF08C08091520194
:100590008823C9F08091560184FD15C00E94720322
:1005A00084EB90E00E947B03109252010E946D0345
:1005B0008091570183FD07C088EE93E0FE013197DB
:1005C000F1F70197D9F79E9913C08091570184FDE7
:1005D0000FC08091550180FF02C00E946605809186
:1005E00055018E7F8093550180915701806113C022
:1005F0009E9B45CF9091570194FF41CF809155012B
:1006000080FD03C09D7F90935701816080935501C9
:10061000809157018F7E8093570131CF1F920F92A7
:100620000FB60F9211242F933F934F935F936F93C5
:100630007F938F939F93AF93BF93EF93FF9380919B
:100640004E0190914F01019790934F0180934E017D
:100650000196A1F480914C0190914D0101969093E7
:100660004D0180934C0187EE93E090934F0180936E
:100670004E01809152018F5F8093520180914A0117
:10068000882391F08091790190917A01892B61F012
:10069000809162018150809362018F5F29F488E02C
:1006A000809362010E943E13FF91EF91BF91AF9141
:1006B0009F918F917F916F915F914F913F912F917A
:1006C0000F900FBE0F901F9018951CBE80E180B94F
:1006D00088E981B986E88CBF08950E980B98BB987D
:1006E000C3980895BB9AC3980B9A0E9A0895159BC8
:1006F000FECF83B90895FC0104C0159BFECF31964F
:1007000083B984918823C9F708951F920F920FB679
:100710000F9211240F900FBE0F901F9018951F92EB
:100720000F920FB60F9211242F933F934F935F9325
:100730006F937F938F939F93AF93BF93CF93DF93E9
:10074000EF93FF9373B180916301882309F09EC0FA
:1007500080916901882309F043C080916A01833246
:10076000C1F520916B01822F8256823090F576354B
:1007700031F07F3421F0713511F0733451F581E09F
:100780008093690180916C01E82FF0E0EA5FFD4FF2
:1007900093E290838F5FE82FF0E0EA5FFD4F2083C4
:1007A0008F5FE82FF0E0EA5FFD4F70838F5F8093EB
:1007B0006C01872F90E0820F911D839690936E01BC
:1007C00080936D0110926A0110926B01A89AA9980A
:1007D0005DC080916B0180936A0170936B0156C07C
:1007E00060916C016A3F08F04AC0A62FB0E02091EA
:1007F0006D0130916E017D3069F0AA5FBD4F7C9331
:100800006F5F60936C01270F311D30936E01209351
:100810006D013CC0FD01EC5FFD4F9081ED01CB5FB0
:10082000DD4F8881A901491B5109481B51095F709F
:1008300050936E0140936D012081CA0136E0969578
:1008400087953A95E1F7835C821789F49881842F24
:100850008F73835C891759F4AA5FBD4F7C936F5FD8
:100860006093640181E080936301A89803C01092B3
:100870006301A99A10926C011092690107C010924D
:100880006C011092630110926901A99AFF91EF9196
:10089000DF91CF91BF91AF919F918F917F916F9198
:1008A0005F914F913F912F910F900FBE0F901F902E
:1008B000189550916401565033E043E048C0E32F4F
:1008C000F0E0EA5FFD4F80813F5FE32FF0E0EA5FF9
:1008D000FD4F20812D533F5FE32FF0E0EA5FFD4F96
:1008E00070813F5FE32FF0E03350EA5FFD4F60819E
:1008F000922F92959F708D53880F880F892BE42F2C
:10090000F0E0EA5FFD4F8083E42FEF5F513081F02C
:10091000972F9D53F0E02295207F892F869586950D
:10092000282BEA5FFD4F2083E42FEE5F523011F455
:100930004E2F10C03C5F5350F0E09295990F990FE5
:10094000907C6D53962BEA5FFD4F90834D5F55234E
:1009500009F0B5CF89E092E090936601809365013C
:100960004350409367010895CF92DF92EF92FF9238
:100970001F93CF93DF93182FEB011F5F1093080293
:1009800011503091680150E4C52E5CE9D52E40E944
:10099000E42E41E0F42E1EC0109263010E94720307
:1009A000CE010E947B030E946D0330E004C0C601AB
:1009B0000197F1F7322F80916301882321F4232FCF
:1009C0002F5F293CA1F78CED95E0F7013197F1F706
:1009D0000197D9F7809108028117F1F680916301A0
:1009E0008130D1F6309368010E945904DF91CF9194
:1009F0001F91FF90EF90DF90CF9008950E947203B7
:100A0000159BFECF8BE183B9159BFECF8BE183B99C
:100A1000159BFECF85E583B9159BFECF8AEA83B986
:100A2000159BFECF13B80E946D0308951616170686
:100A30001CF021E030E011C021E030E008C0A90145
:100A4000489F9001499F300D589F300D11246150EF
:100A500070405FEF6F3F750791F7C901089527E078
:100A600030E0482F50E0CA01022E02C095958795CC
:100A70000A94E2F780FF02C0DA9A01C0DA98DB9AA2
:100A8000DB98215030408FEF2F3F380761F70895F2
:100A90001F93162FD9980E942F05812F0E942F0592
:100AA000D99A1F9108950F931F93182F062F85E051
:100AB000692F0E94480586E0612F0E94480587E063
:100AC000602F0E9448051F910F91089584E064E40F
:100AD0000E94480580E78A95F1F708950F931F93C8
:100AE000182F062F926085E0692F0E94480586E046
:100AF000612F0E94480587E0602F0E9448051F91E2
:100B00000F9108959EE1699FB00111249B01280F68
:100B1000311DC901642F0E94530508959EE1699F0C
:100B2000B00111249B01280F311DC901642F0E94BF
:100B30006E0508959C01603211F460E051C0862F6B
:100B40008153893010F460534BC0603311F46AE074
:100B500047C0862F81548A3110F4665341C0862FD6
:100B600081568A3110F46C533BC0683211F46FE344
:100B700037C0693211F460E433C06E3211F461E4BD
:100B80002FC06D3211F469E42BC06B3311F463E4B0
:100B900027C06A3311F464E423C06C3211F465E4B5
:100BA0001FC06F3311F462E41BC06C3511F466E4AE
:100BB00017C06F3511F463EE13C06F3211F467E4A0
:100BC0000FC0623211F468E40BC06C3311F46AE4B4
:100BD00007C06E3311F46BE403C0603409F46CE4B5
:100BE000C9010E9453050895EF92FF921F93CF937E
:100BF000DF93182FEA018EE1689F7001112407C06E
:100C0000C701810F911D1F5F0E949A05219668817F
:100C10006623B1F7DF91CF911F91FF90EF90089578
:100C2000EF92FF920F931F93CF93DF93082FEA0168
:100C3000122F8EE1689F7001112408C0C701800F38
:100C4000911D0F5F69910E949A0511501123B1F710
:100C5000DF91CF911F910F91FF90EF900895EF9248
:100C6000FF921F93CF93DF93182FEA018EE1689FC5
:100C70007001112409C0C701810F911D1F5F2196CA
:100C8000F90164910E949A059E01FE0184918823D6
:100C900091F7DF91CF911F91FF90EF900895DF9230
:100CA000EF92FF920F931F93CF93DF93062FEA01EA
:100CB000122F9EE1D92EE82EFF240DC00D9DC001FC
:100CC00011240F5FFE012196E4918E0D9F1D6E2F62
:100CD0000E9453051150112389F7DF91CF911F9185
:100CE0000F91FF90EF90DF9008955F926F927F9247
:100CF0008F929F92AF92BF92CF92DF92EF92FF922C
:100D00000F931F93CF93DF93582E762E7901602E89
:100D1000121613061CF021E030E014C0B90121E0E6
:100D200030E00AC0C901880F991FE3E0220F331F8A
:100D3000EA95E1F7280F391F615070408FEF6F3F40
:100D4000780781F742175307E4F01E141F041CF0C4
:100D500041E050E014C0970141E050E00AC0CA01F0
:100D6000880F991F63E0440F551F6A95E1F7480FFC
:100D7000591F21503040EFEF2F3F3E0781F7415080
:100D8000504000E013E0CA01B8014AE050E00E9480
:100D9000591DF80101900020E9F78F010150104022
:100DA00000501340C02E8EE1789EE0011124DD2416
:100DB000A02EBB2447018A189B0810C00F2D10E0FD
:100DC000662029F0C8018C0F9D1F6AE004C0C8018D
:100DD0008C0F9D1F60E00E945305D394FD2CF50CF1
:100DE0008D2D90E0881599054CF3F501E150FD4FEC
:100DF000E0801082F1E0CF1629F4CE0101978F0D2B
:100E0000911D13C082E0C816A1F4809100038D32B9
:100E100081F40F2D10E0CE010197800F911F69E43E
:100E20000E945305C8018C0F9D1F6AE00E94530564
:100E300006C08F2D672D40E053E00E94F4051C2D65
:100E400011501F0DCE01810F911D61E40E945305C9
:100E50001F5FCE01810F911D6E2D0E949A05DF91BB
:100E6000CF911F910F91FF90EF90DF90CF90BF90A7
:100E7000AF909F908F907F906F905F9008955F925A
:100E80006F927F928F929F92AF92BF92CF92DF929A
:100E9000EF92FF920F931F93CF93DF93582E762EEE
:100EA0007901602E121613061CF021E030E014C008
:100EB000B90121E030E00AC0C901880F991F13E091
:100EC000220F331F1A95E1F7280F391F6150704028
:100ED0008FEF6F3F780781F742175307E0F01E143A
:100EE0001F041CF041E050E014C0970141E050E0C5
:100EF0000AC0CA01880F991FA3E0440F551FAA9585
:100F0000E1F7480F591F21503040EFEF2F3F3E07C8
:100F100081F74150504000E013E0CA01B8014AE0B7
:100F200050E00E94591DF80101900020E9F78F015F
:100F30000150104000501340C02E8EE1789EE00119
:100F40001124DD24A02EBB2447018A189B0810C061
:100F50000F2D10E0662029F0C8018C0F9D1F6AE05C
:100F600004C0C8018C0F9D1F60E00E945305D394FC
:100F7000FD2CF50C8D2D90E0881599054CF3F501AD
:100F8000E150FD4FE0801082F1E0CF1629F4CE0150
:100F900001978F0D911D13C082E0C816A1F48091B6
:100FA00000038D3281F40F2D10E0CE010197800FE8
:100FB000911F69E40E945305C8018C0F9D1F6AE0D0
:100FC0000E94530506C08F2D672D40E053E00E941C
:100FD000F4051C2D11501F0DCE01810F911D61E4F0
:100FE0000E9453051F5FCE01810F911D6E2D0E943F
:100FF0009A05DF91CF911F910F91FF90EF90DF90B5
:10100000CF90BF90AF909F908F907F906F905F90A8
:101010000895AF92BF92CF92DF92EF92FF920F931B
:101020001F93CF93DF93E82EB62EE901A02E121660
:1010300013061CF021E030E014C0B90121E030E0DB
:101040000AC0C901880F991F13E0220F331F1A9598
:10105000E1F7280F391F615070408FEF6F3F78071D
:1010600081F788279927821B930B84179507FCF03B
:101070001C161D061CF021E030E014C0AE0121E07A
:1010800030E00AC0C901880F991FA3E0220F331F67
:10109000AA95E1F7280F391F415050408FEF4F3F7D
:1010A000580781F741E050E0421B530B39C01C1632
:1010B0001D061CF021E030E014C0BE0121E030E04C
:1010C0000AC0C901880F991FE3E0220F331FEA9578
:1010D000E1F7280F391F615070408FEF6F3F78079D
:1010E00081F742175307E4F01C161D061CF041E07F
:1010F00050E014C09E0141E050E00AC0CA01880FD0
:10110000991F63E0440F551F6A95E1F7480F591F77
:10111000215030408FEF2F3F380781F7415050402A
:1011200000E013E0CA01B8014AE050E00E94591DF6
:10113000F80101900020E9F73197E01BF10BEC1763
:10114000FD0710F04E2D26C08EE1B89E60011124DF
:10115000FF2410C0842F90E0AA2031F08C0D9D1D3B
:101160006AE00E94530505C08C0D9D1D60E00E9441
:101170009A05F3944F2D4E0DF80101900020E9F7E8
:10118000CE018E1B9F0B2F2D30E08F5F9C4F2817B9
:10119000390700F3842F6B2D40E053E00E94F405E3
:1011A000DF91CF911F910F91FF90EF90DF90CF9043
:1011B000BF90AF900895AF92BF92CF92DF92EF921F
:1011C000FF920F931F93CF93DF93A82EB62EE901C2
:1011D000121613061CF021E030E014C0B90121E022
:1011E00030E00AC0C901880F991FE3E0220F331FC6
:1011F000EA95E1F7280F391F615070408FEF6F3F7C
:10120000780781F742175307E0F01C161D061CF003
:1012100041E050E014C09E0141E050E00AC0CA0124
:10122000880F991F63E0440F551F6A95E1F7480F37
:10123000591F215030408FEF2F3F380781F7415021
:101240005040CA0160E073E04AE050E00E94591D3E
:101250008EE1B89E7001112410E080E0C82E83E07A
:10126000D82E10C0842F90E0002331F08E0D9F1DEA
:101270006AE00E94530505C08E0D9F1D60E00E942C
:101280009A051F5F412F4A0DF60101900020E9F7F2
:10129000CE018E1B9F0B212F30E08F5F9C4F2817B4
:1012A000390700F3842F6B2D40E053E00E94F405D2
:1012B000DF91CF911F910F91FF90EF90DF90CF9032
:1012C000BF90AF9008957F928F929F92AF92BF92FE
:1012D000CF92DF92EF92FF920F931F93162F690127
:1012E0007A01782E739457FF0BC0C094D094E09489
:1012F000F0940894C11CD11CE11CF11C49E401C00C
:1013000040E00E948205C701B60120E836E948E9BD
:1013100050E00E943E1D872D612FA90123E030E09F
:1013200001E00E94DB08872D8D5F612F41E40E9460
:101330008205C701B60120E836E948E950E00E947D
:101340003E1D6B017C01C701B60128EE33E040E091
:1013500050E00E943E1D4901872D8C5F612FA9013D
:1013600024E030E00E94DB08AA24BB24C501B401BC
:1013700028E13CEF4FEF5FEF0E94BD1CC60ED71E69
:10138000E81EF91E872D885F612FA60123E030E05B
:101390000E94DB08872D855F612F40ED0E9482054A
:1013A0001F910F91FF90EF90DF90CF90BF90AF9083
:1013B0009F908F907F900895BF92CF92DF92EF928F
:1013C000FF920F931F93182FB62E6A01CA016CE388
:1013D00070E00E94F51C7B01812F6B2DA70123E09B
:1013E00030E000E00E94DB08812F8D5F6B2D44E42C
:1013F0000E9482058CE390E09C01E29EC001E39E86
:10140000900DF29E900D1124C81AD90A812F8C5F7D
:101410006B2DA60122E030E001E00E94DB081F9165
:101420000F91FF90EF90DF90CF90BF9008959C01B7
:1014300048978C9710F480E00895C9018454904037
:101440008D9710F481E00895C901815790408D97E0
:1014500010F482E00895C9018E5990408D9710F4E0
:1014600083E00895C9018B5C90408D9710F484E06F
:101470000895C901885F90408D9710F485E0089524
:10148000255231402D32310510F087E0089586E075
:1014900008959C0153E0880F991F5A95E1F7220F98
:1014A000331F820F931F8F589F4F60E17EE00E9491
:1014B000F51C61EE70E00E94F51C862F08951F93C5
:1014C000CF93DF93C4E0D1E01CEE4A81440F440F78
:1014D000410F888169810E94820523961F5F103F1A
:1014E000A1F7DF91CF911F910895BF92CF92DF9224
:1014F000EF92FF920F931F93CF93DF93182FE62E57
:10150000EA0169018FE067E044EE0E948205CE01A6
:1015100064E170E00E94091D262FD7FF0EC08CEEFB
:101520006802C00111248C0F9D1F64E070E00E94CE
:10153000091DB62EB194215010C08CEE6802C00176
:1015400011248C0F9D1F64E070E00E94091D7095AE
:1015500061957F4FE4E0BE2EB60E67E0621BE61693
:1015600010F40E2D04C0062F611708F4012FC601D8
:1015700068E070E00E94091D615F623018F472E05B
:10158000F72E06C0F62E8CE1861710F46CE1F62ECD
:1015900040913B01242F332727FD30958F2D90E07C
:1015A0002817390739F047FD05C0842F6E2D40E01C
:1015B0000E94820560913C01262F332727FD30953C
:1015C000802F90E02817390761F067FD0AC08EE090
:1015D00040E00E94820580E160913C0140E00E9471
:1015E00082056B2D653008F064E0E62FF0E0E35CE7
:1015F000FE4F10818EE0602F412F0E94820580E116
:10160000602F412F0E9482058F2D6E2D45EE0E9486
:101610008205F0923B0100933C01DF91CF911F9135
:101620000F91FF90EF90DF90CF90BF900895DF92E1
:10163000EF92FF920F931F93D82EE62E142F842F34
:1016400065E00E94E81CF82E8BEF3F2D3802C001A8
:101650001124042F080F421739F02E0D8FE08D1939
:10166000622F40E00E94820517FF02C00C5FFA94CF
:10167000EF0CE02FFF27E7FDF095ED5BFE4F8FE0CD
:101680008D196E2D40810E9482052F2D332727FD55
:101690003095C9011F910F91FF90EF90DF90089551
:1016A0000F931F93DF93CF9300D0CDB7DEB7142FE6
:1016B0003A83298388E067E042EE0E94820585E153
:1016C00067E042EE0E94820589819A8162E070E0C3
:1016D0000E94091D062F019511950E310CF00EE1A7
:1016E0001E310CF01EE1402F07FD4F5F45954C5E0B
:1016F000410F84E063E0209176010E94170B8093F4
:101700007601802F63E00E94E81C482F4C5E410F59
:1017100083E063E0209175010E94170B80937501AF
:10172000802F66E00E94E81C482F4C5E410F82E04B
:1017300063E0209174010E94170B80937401802F45
:101740006EE00E94E81C482F4C5E410F81E063E090
:10175000209173010E94170B80937301802F07FD66
:101760008F5F8595412F481B4C5E8DEF63E0209184
:1017700072010E94170B80937201802F6DEF0E94FF
:10178000E81C482F4C5E410F8EEF63E02091710101
:101790000E94170B80937101802F6AEF0E94E81C52
:1017A000482F4C5E410F8FEF63E0209170010E9443
:1017B000170B80937001802F62EF0E94E81C482F66
:1017C0004C5E410F80E063E020916F010E94170B97
:1017D00080936F0100934201109377010F900F9057
:1017E000CF91DF911F910F910895282F362F141656
:1017F00015065CF4CA0165E070E00E94091D462FE1
:101800004059443760F043E70AC0CA0165E070E020
:101810000E94091D462F4958443708F444E7822F97
:10182000632F0E9482050895CF92DF92EF92FF927C
:101830000F931F93CF93DF93C82ED62E40E5E62E4D
:10184000FF240894E11CF11CC82FD0E027960EC09D
:10185000142F1F5F802F6D2D0E9482050F5F412F77
:10186000802F90E0C817D9079CF7D3948D2D90E076
:10187000E816F90614F00C2DF3CFDF91CF911F91EC
:101880000F91FF90EF90DF90CF9008950F93E82F86
:10189000F62F241710F460E018C0842F90E030E099
:1018A000281B390B602F70E0681B790B84E690E0F1
:1018B000AC01249FC001259F900D349F900D1124F1
:1018C0000E94091D653608F064E68DE0689FC0013E
:1018D00011246CE97FEF0E94091D462F43568E2F7D
:1018E0006F2F0E9482050F910895EF92FF920F9340
:1018F0001F93CF93DF93282F062FCA0168E671E06C
:101900000E94F51C66E170E00E94F51C6D5E70E0BF
:10191000EB01CA5ADE4FFFE5EF2EF1E0FF2EE60E97
:10192000F71E122F1F5FFE014491822F602F0E942D
:1019300082052196212FCE15DF0599F7DF91CF91F2
:101940001F910F91FF90EF9008950F931F9381E0E7
:1019500063E040E551E00E942F0681E064E046E448
:1019600051E00E942F0681E065E04CE351E00E94C7
:101970002F0683E164E00E94140C8091560140918F
:10198000590150915A0183FF52C0CA0115E0880FD6
:10199000991F1A95E1F76AE070E00E94091DAB01FA
:1019A0008DE063E024E030E000E00E94090881E17E
:1019B00063E04EE70E94820560915B0170915C01DB
:1019C00080E090E027E131E040E050E00E94BD1C63
:1019D00024ED30E340E050E00E941C1D8EE064E006
:1019E000A90123E030E00E94DB0881E164E04DE7DB
:1019F0000E94820580915D0190915E016AE070E035
:101A00000E94091DCB01B5E0880F991FBA95E1F737
:101A10006AE070E00E94091DAB018DE065E024E002
:101A200030E00E94DB0881E165E04EE743C08DE0D5
:101A300063E024E030E000E00E94090881E163E017
:101A40004CEC0E94820520915B0130915C0140E0EA
:101A500050E0CA01B901A3E0660F771F881F991FE4
:101A6000AA95D1F7620F731F841F951F2AEF30E0EC
:101A700040E050E00E941C1D8EE064E0A90123E0DC
:101A800030E00E94DB0881E164E04BEC0E948205BB
:101A900080915D0190915E016AE070E00E94091DF5
:101AA000AB018DE065E024E030E00E94DB0881E1DD
:101AB00065E04CEC0E94820581E066E042E351E083
:101AC0000E942F06409110018DE066E050E023E077
:101AD00030E000E00E943F0781E166E04EE90E94AD
:101AE00082058091570180FD06C08091550186FDD9
:101AF00002C016E056C081E067E048E251E00E9473
:101B00002F0680917E0190917F016AE070E00E9433
:101B1000091DAB018DE067E023E030E000E00E94AA
:101B20003F0781E167E04FE90E94820580915701FC
:101B300080FF1CC08091550186FD18C00091900166
:101B400010919101609180017091810180918201D9
:101B5000909183012AE030E040E050E00E943E1D79
:101B6000201B310B82E167E0A90110C08091550173
:101B700086FF11C04091F4015091F50180919001D0
:101B800090919101481B590B82E167E025E030E01C
:101B900000E00E94DB0887E167E045EB0E948205D8
:101BA00017E01F5F81E0612F4EE151E00E942F0698
:101BB00040915F01509160018BE0612F0E94DC0930
:101BC00081E1612F42ED0E9482051F5F81E0612F5C
:101BD00044E151E00E942F062091A5013091A60119
:101BE0004091A7015091A8018BE0612F0E946309E9
:101BF0001F5F81E0612F4AE051E00E942F06209193
:101C0000A9013091AA014091AB015091AC018BE048
:101C1000612F0E9463091F910F910895495F5F4FE3
:101C200057FF02C040E050E062509A014F3051052A
:101C300014F02EE030E0A901440F551F440F551F4A
:101C4000420F531F41545F4F25E00E944F060895F5
:101C5000442319F047E752E002C043E752E00E94F4
:101C60002F060895EF92FF921F93CF93DF930E9468
:101C700066050E945F0A88E893E120E931E0F901F6
:101C80003197F1F70197D9F710E080E9E82E81E06C
:101C9000F82E0E945F13892B49F088E893E1F70141
:101CA0003197F1F70197D9F71F5F36C00E944313B0
:101CB000892B91F1812F63E00E94DC1CC12FD0E0C1
:101CC000923051F4FE01EC5FFE4F808190E001966E
:101CD00081709070808315C0FE01EC5FFE4FE08143
:101CE00090FD03C06EE170E004C080910301682F95
:101CF00070E0CC5FDE4F8E2F90E001960E94091DB0
:101D000088830E9466050E945F0A88EE93E0F701CF
:101D10003197F1F70197D9F71C3008F4BACF0E9438
:101D20006605DF91CF911F91FF90EF900895DF92AC
:101D3000EF92FF920F931F93CF93DF93682F8750FB
:101D4000883028F44BEFD42ED60E8FE009C06830CF
:101D500018F432E0D32E02C02BEFD22ED60E81E043
:101D6000C1E0D0E0082F10E09DE0E92EF12CE00E5C
:101D7000F11E8C2F6091780140E00E948E05C01703
:101D8000D10744F0EC16FD062CF08C2F6D2D4FEA98
:101D90000E948E052196CD31D10559F781E062E090
:101DA0004DE652E00E942F068091560180FF05C04B
:101DB0008BE062E04FE851E004C08BE062E04AE86B
:101DC00051E00E942F0681E063E044E652E00E9469
:101DD0002F064091550141708BE063E00E94280E70
:101DE00081E064E04CE552E00E942F0640915501ED
:101DF00042708BE064E00E94280E81E065E042E5DD
:101E000052E00E942F064091550140788BE065E03A
:101E10000E94280E81E066E04CE452E00E942F060A
:101E20004091550148708BE066E00E94280E81E0E9
:101E300067E044E452E00E942F064091550140744F
:101E40008BE067E00E94280E81E068E04CE352E0FE
:101E50000E942F064091560140748BE068E00E947A
:101E6000280E8FE062E042E352E00E942F0640918C
:101E70005501407289E162E00E94280E8FE063E024
:101E800048E252E00E942F068091560181FF05C072
:101E900089E163E043E252E004C089E163E04EE19E
:101EA00052E00E942F068FE064E045E152E00E947C
:101EB0002F0640915601487089E164E00E94280E87
:101EC0008FE065E04BE052E00E942F064091550103
:101ED000447089E165E00E94280E8FE066E041E0F1
:101EE00052E00E942F0640915601407889E166E059
:101EF0000E94280E8FE067E049EF51E00E942F0614
:101F000040915601407189E167E00E94280E8FE000
:101F100068E04FEE51E00E942F064091560140725A
:101F200089E168E00E94280E8FE069E044EE51E00C
:101F30000E942F0681E06AE047ED51E00E942F06E3
:101F400081E06BE04AEC51E00E942F06E0914801ED
:101F5000F09149013296459154918FE06BE00E94D7
:101F60002F0681E06CE04EEB51E00E942F0681E0ED
:101F70006DE049EB51E00E942F06D0927801DF918D
:101F8000CF911F910F91FF90EF90DF9008951F93D5
:101F9000182F682F655081E046EA51E00E942F0615
:101FA00088E893E120E931E0F9013197F1F70197F1
:101FB000D9F7812F0E94970E1F910895CF93DF9339
:101FC00080E090E066EE0E94821D81E090E06FED7F
:101FD0000E94821D82E090E0609155010E94821D66
:101FE00083E090E0609156010E94821D84E090E0C1
:101FF000609158010E94821DC0E0D0E0FE01EC5FBC
:10200000FE4FCE018B5F9F4F60810E94821D219603
:10201000CC30D10599F7DF91CF9108957F928F92BF
:102020009F92AF92BF92CF92DF92EF92FF920F9367
:102030001F93CF93DF93F8940E94660586E061E0DA
:1020400044E951E00E942F0684EC99E020E931E058
:10205000F9013197F1F70197D9F780E00E94970EC7
:1020600000E0C0E9D1E0CC24C39480E2B82E10E1B6
:10207000712EB4E08B2EA8E0DA2EF2E0EF2EE0E431
:10208000FE2E7EE0A72E6CE0962E0E945F13892B19
:1020900091F0802F90E0019663E170E00E94091DAD
:1020A000082F0E94970E88E893E1FE013197F1F71F
:1020B0000197D9F7EACF0E944313892B31F3E02F20
:1020C000F0E0E331F105A8F4E85CFF4FEE0FFF1FED
:1020D0000590F491E02D0994809156018C25809310
:1020E000560180FF08C080E068E00E944805909299
:1020F000030111E06AC080E068E40E944805A092F4
:102100000301F7CF809155018C2523C080915501A3
:102110008E251FC08091550180581BC080915501AC
:102120008D2517C0809155018F2513C080915601D0
:102130008F251DC0809155018B250BC080915601C4
:102140008E2515C0809156018D2511C080915501B5
:10215000882580935501CDCF80915601805807C0C6
:1021600080915601872503C0809156018B2580936D
:102170005601BFCF0E94320EBCCF10924D0110927B
:102180004C018FE01BC0E0915801EF5FE170E093DC
:102190005801F0E0EE0FFF1FEE0FFF1FE455FF4F59
:1021A000F0934901E09348018591949190933A010D
:1021B000809339019ECF0E94DE0F81E10E94C70FFC
:1021C00098CF82E10E94C70F10E0802F0E94970EE7
:1021D00084EC99E0FE013197F1F70197D9F71123CB
:1021E00009F053CF0E946605809157018D7F80933F
:1021F00057017894DF91CF911F910F91FF90EF904D
:10220000DF90CF90BF90AF909F908F907F90089578
:102210001F93CF93DF93182F80E090E00E947A1DE8
:10222000863E81F581E090E00E947A1D8F3D51F558
:10223000112331F082E066E048E553E00E942F066A
:1022400082E090E00E947A1D8093550183E090E047
:102250000E947A1D8093560184E090E00E947A1DCE
:1022600080935801C0E0D0E0CE018B5F9F4F0E9469
:102270007A1DFE01EC5FFE4F80832196CC30D105A4
:1022800099F708C0112331F082E066E046E453E09C
:102290000E942F06DF91CF911F9108950F931F93F6
:1022A000DF93CF93CDB7DEB7CE5BD0400FB6F894B7
:1022B000DEBF0FBECDBF182F0E94660582E061E031
:1022C00040E453E00E942F0683E062E04BE353E0DA
:1022D0000E942F068BE061E00E94140C82E065E012
:1022E0004DE253E00E942F0681E00E940811809188
:1022F000560180FF05C087E161E04FE851E004C06E
:1023000087E161E04AE851E00E942F0682E067E041
:1023100042E253E00E942F0682E068E049E153E088
:102320000E942F068DE068E043E153E00E942F06F3
:1023300082E069E04DE053E00E942F068EE069E004
:1023400048E053E00E942F0682E064E04AEF52E04A
:102350000E942F060E9472038FEE92E00E947B0380
:102360000E946D0381E564EE72E00E94B404DE0118
:102370001B9680916501909166019C01F90184EBA7
:1023800001900D928150E1F78C85813761F183E0F6
:102390006BE04CEC52E00E942F0683E06CE04FEBC8
:1023A00052E00E942F0688E06CE041E750E023E015
:1023B00030E001E00E94DB084C858FE06CE050E0EB
:1023C00023E030E00E94DB0820E040E951E008C053
:1023D000FA013197F1F70197D9F72F5F283719F0F4
:1023E00080E197E2F5CF8091A401853069F183E027
:1023F0006BE048EA52E00E942F0683E06CE04BE974
:1024000052E00E942F0688E06CE045E050E023E0B7
:1024100030E001E00E94DB084091A4018FE06CE015
:1024200050E023E030E00E94DB0820E040E951E08A
:1024300008C0FA013197F1F70197D9F72F5F2837D4
:1024400019F080E197E2F5CF4B858AE067E050E034
:1024500021E030E001E00E94DB088DE067E0AE01A2
:102460004E545F4F2CE00E94100698A9923398F4C6
:1024700042E026E530E0612F70E0621773072CF030
:102480004F5F255D3F4F4730C1F7499F802D112495
:102490008093530106C090935301492F429546956E
:1024A000477085E2489FC0011124809354018BE05E
:1024B00068E050E021E030E000E00E94DB0840915D
:1024C000530188E069E050E023E030E00E947506A7
:1024D0004091540184E169E050E023E030E00E9443
:1024E00075060E94FE0480ED97E020E931E0F901D5
:1024F0003197F1F70197D9F70E94FE0482E06BE073
:1025000046E852E00E942F0686E56BE772E00E94E3
:10251000B404DE01119680916501909166019C01E1
:10252000F9018AE001900D928150E1F749818EE036
:102530006BE050E023E030E001E00E94DB084A81DC
:1025400082E16BE050E023E030E00E94DB086D8127
:102550006F5980E691E00E949A05E0915801E17080
:10256000E0935801F0E0EE0FFF1FEE0FFF1FE45560
:10257000FF4FF0934901E093480185919491909326
:102580003A018093390180E593EC20E931E0F901CB
:102590003197F1F70197D9F70E94660580915701AD
:1025A0008D7F886080935701C254DF4F0FB6F89437
:1025B000DEBF0FBECDBFCF91DF911F910F91089568
:1025C000DF93CF930F92CDB7DEB780EB87BBC49A72
:1025D00083ED8DB98EB189838FB189830F90CF91AF
:1025E000DF9108951F920F920FB60F9211248F93CF
:1025F0009F93EF93FF9380917B01882321F48FB108
:1026000080939D0107C0E0917B01F0E08FB1EE5611
:10261000FE4F808380917B018F5F80937B0180914F
:10262000790190917A01019790937A0180937901D1
:102630008091790190917A01892B21F081E080933A
:102640004A0102C06F98929AFF91EF919F918F91EA
:102650000F900FBE0F901F9018952DB130E020788D
:102660003070C9010895929810927B0190937A017D
:10267000809379016F9A81E48FB9089580917B01ED
:102680008F5B8FB908959D9B03C020E030E015C09B
:102690008AEF90E020E931E0F9013197F1F70197F5
:1026A000D9F783B3282F30E085E0369527958A95B2
:1026B000E1F72095309521703070C90108959C9BF9
:1026C00003C020E030E015C08AEF90E020E931E05F
:1026D000F9013197F1F70197D9F783B3282F30E04B
:1026E00094E0369527959A95E1F7209530952170DD
:1026F0003070C9010895389A8BB780628BBF86B756
:10270000816086BF8EB583608EBD08951F920F9243
:102710000FB60F9211242F933F938F939F9306B67A
:1027200000FE09C08CB59DB590938501809384010E
:1027300086B78E7F45C080914B01882321F0815060
:1027400080934B013BC02CB53DB5809184019091A5
:10275000850180509F4F82179307B8F48CB59DB5C3
:102760002091840130918501821B930B9093870106
:1027700080938601809186019091870180509140DD
:10278000909387018093860104C010928701109274
:1027900086018091860190918701209155018038B2
:1027A000910548F420FD05C0809157018D7F8093ED
:1027B0005701216001C02E7F2093550186B78160AB
:1027C00086BF9F918F913F912F910F900FBE0F90D9
:1027D0001F901895EF92FF920F931F93CF93DF9363
:1027E0008091550180FD03C00E946605F8C4809168
:1027F000570181FD81C08091560183FF12C085E0A1
:10280000609102014DE70E948205609102016F5FB5
:102810008BE14EE70E9482058BE1609102014EE759
:1028200011C085E0609102014BEC0E94820560912D
:1028300002016F5F8BE14CEC0E9482058BE160919D
:1028400002014CEC0E94820580E16091020140EDA2
:102850000E948205609102016F5F84E140EB0E945B
:102860008205609102016F5F86E142EB0E94820562
:1028700087E0609103014EE90E9482058091570133
:1028800080FD04C08091550186FF19C0609103014D
:10289000615087E04FE90E94820560910301615019
:1028A0008EE045EB0E9482058091550185FF07C0AF
:1028B00060910301615085E14EE90E9482058EE03E
:1028C0006091030141ED0E94820585E16091030161
:1028D00042ED0E9482058AE16091030148EC0E946A
:1028E00082058BE16091030149EC0E948205809191
:1028F00057018260809357018091560183FF1CC06D
:102900006091DE017091DF0180E090E027E131E02D
:1029100040E050E00E94BD1C24ED30E340E050E078
:102920000E941C1D82E060910201A90123E030E0B9
:1029300000E00E94DB083FC02091DE013091DF0102
:1029400040E050E0CA01B901E3E0660F771F881F3D
:10295000991FEA95D1F7620F731F841F951F2AEF05
:1029600030E040E050E00E941C1D82E060910201D6
:10297000A90123E030E000E00E94DB0880915601CD
:1029800087FF19C08091E70180FD08C08091570141
:1029900082FF04C08091550183FD0DC08091DE014E
:1029A0009091DF016DE770E00E94F51CAB0182E0C1
:1029B00068E00E940E0E4091E60187E060910201FE
:1029C00050E023E030E000E00E94DB088091E60167
:1029D000853678F480910101853658F017E0812F13
:1029E000609102014FE40E948E051F5F1B30B9F712
:1029F00012C08091E601853670F080910101853624
:102A000050F417E0812F6091020140E00E948E0592
:102A10001F5F1B30B9F78091EE0180FF05C08AE08F
:102A2000609102014FE804C08AE0609102014AEC23
:102A30000E9482058091E80184FF05C08BE06091CF
:102A4000020140E004C08BE06091020146EC0E946C
:102A500082054091E2015091E3018DE06091020115
:102A600023E030E000E00E94DB0810910201809139
:102A7000E2019091E3010E94170AE82FF0E0EE0FC7
:102A8000FF1FE75DFE4F4081518181E1612F0E9470
:102A9000F4054091D9015091DA0185E1609102017C
:102AA0000E94F50B8091560190E09C0128703070D7
:102AB00081FF8EC0C091A201D091A301232B11F1FF
:102AC0006091AD017091AE018091AF019091B00124
:102AD00028EE33E040E050E00E943E1DDA01C901DB
:102AE0008C1B9D0BB5E0880F991FBA95E1F76AE042
:102AF00070E00E94091DAB0187E16091020124E0B2
:102B000030E081C06091AD017091AE018091AF0164
:102B10009091B0017E010027F7FC0095102F28EE60
:102B200033E040E050E00E943E1D2E193F09400B6B
:102B3000510B2B30310541055105BCF46091AD01BD
:102B40007091AE018091AF019091B00128EE33E019
:102B500040E050E00E943E1D2E193F09400B510BF2
:102B6000265F3F4F4F4F5F4FACF46091AD017091C6
:102B7000AE018091AF019091B00128EE33E040E0CA
:102B800050E00E943E1D2C1B3D0B87E1609102012D
:102B9000A90136C06091AD017091AE018091AF0185
:102BA0009091B00126EF3FEFC29F8001C39F100DAF
:102BB000D29F100D112424E630E040E050E00E9446
:102BC0003E1D020F131F87E160910201A8013DC065
:102BD000232BE1F08091D7019091D8016AE070E059
:102BE0000E94091DCB01A5E0880F991FAA95E1F766
:102BF00064E170E00E94091DAB0187E16091020170
:102C000024E030E000E00E94090824C08091D70150
:102C10009091D801893C91053CF48091D701909125
:102C2000D80188539F4F2CF48091D7019091D801FF
:102C3000DFCF8091D7019091D80162E070E00E94CF
:102C4000091DAB0187E16091020123E030E000E063
:102C50000E9475064091E2015091E30160910201EA
:102C60006F5F8BE00E94750C8091D2019091D3012F
:102C70002091E2013091E301109102011F5F885918
:102C80009E4F821B930B68E671E00E94091D0E9413
:102C9000490A482F405685E1612F0E9482058091A4
:102CA0005601E091020183FF10C08091D001909104
:102CB000D101EF5F6AE070E00E94F51CCB01F5E006
:102CC000880F991FFA95E1F705C08091D001909186
:102CD000D101EF5F6AE070E00E94F51CAB0187E173
:102CE0006E2F24E030E000E00E94DB088091560166
:102CF00086FF31C08091E70180FD08C080915701B7
:102D000082FF04C08091550183FD25C0909103018D
:102D1000192F12508091570180FF04C080915501F6
:102D200085FD11502091A5013091A6014091A70188
:102D30005091A8018FE0612F0E9463092091A901A1
:102D40003091AA014091AB015091AC011F5F8FE01F
:102D5000612F0E9463098091E7019091610180FFDA
:102D60008BC090FD51C00E9466058091560181FF85
:102D700013C06091AD017091AE018091AF0190914F
:102D8000B00128EE33E040E050E00E943E1D309359
:102D9000A3012093A2010CC08091D7019091D8018A
:102DA00064E170E00E94091D7093A3016093A20189
:102DB0008091570180FF17C08091550186FD13C097
:102DC00060918001709181018091820190918301D5
:102DD0002AE030E040E050E00E943E1D3093910137
:102DE000209390010CC08091550186FF08C080910E
:102DF000F4019091F501909391018093900180915D
:102E000057018D7F809357012091550121FF2EC0DE
:102E10006091030161508091570180FD01C026FD42
:102E200061508091560186FD6150E091020127FFBB
:102E30000FC04091E4012091E501552747FD5095D1
:102E4000332727FD30958E2F8E5F0E94500B0EC0CA
:102E50004091E4012091E501552747FD5095332726
:102E600027FD30958E2F8E5F0E94750A8091570145
:102E700084608093570141C090FF07C00E9466059F
:102E8000809157018D7F8093570180915701282FA2
:102E900082FF07C08091550183FF03C00E94A50CEB
:102EA0002CC09091550191FF28C0609103016150A1
:102EB00020FD01C096FD6150E091020197FF0FC017
:102EC0004091E4012091E501552747FD50953327B6
:102ED00027FD30958E2F8E5F0E94500B0EC04091C3
:102EE000E4012091E501552747FD5095332727FD43
:102EF00030958E2F8E5F0E94750A8091550182FF5A
:102F000008C04091D9015091DA018BE168E00E943C
:102F10000E0E8091570180FF2CC08091550186FDD7
:102F200028C020910301215080917C0190917D0166
:102F30006AE070E00E94091DAB0182E0622F24E08C
:102F400030E000E00E943F071091030111506091B2
:102F500080017091810180918201909183012AE02A
:102F600030E040E050E00E943E1D89E0612FA90161
:102F700019C08091550186FF19C04091F20150910E
:102F8000F30160910301615082E024E030E000E051
:102F90000E943F074091F4015091F50160910301B7
:102FA000615089E025E030E00E94DB088091570104
:102FB00080FF11C08091550185FF0DC06091030114
:102FC0006150409107035091080381E123E030E014
:102FD00000E00E943F072091DD0182E06091030143
:102FE00040915301009154010E94460C4091DD0133
:102FF00083E06091030150E023E030E000E00E94B4
:103000003F078091DD0190915301981738F180912D
:103010000001981718F582E0609103014FE40E94C7
:103020008E0583E0609103014FE40E948E0584E0E9
:10303000609103014FE40E948E0585E060910301D9
:103040004FE40E948E0586E0609103014FE40E94E8
:103050008E0587E0609103014FE42AC08091DD0175
:10306000981740F580910001891720F582E0609162
:10307000030140E00E948E0583E06091030140E07F
:103080000E948E0584E06091030140E00E948E055D
:1030900085E06091030140E00E948E0586E060912A
:1030A000030140E00E948E0587E06091030140E04B
:1030B0000E948E0540914C0150914D0188E0609135
:1030C00003010E94DC094091DB015091DC018FE09B
:1030D000609103010E94DC094091D60188E1609172
:1030E000030150E022E030E000E00E94DB08809124
:1030F000E80187FD1BC0809192011816BCF088E1A1
:10310000609103014FE40E948E0589E16091030103
:103110004FE40E948E058AE1609103014FE40E9412
:103120008E058BE1609103014FE41EC08091E801A0
:1031300087FF1CC08091920187FD18C088E16091D3
:10314000030140E00E948E0589E16091030140E0A7
:103150000E948E058AE16091030140E00E948E0585
:103160008BE16091030140E00E948E058091E801AF
:1031700086FF05C087E16091030143EB04C087E14E
:103180006091030140E00E9482058091E80182FF86
:1031900005C08BE16091030147EE0DC08091E8010D
:1031A00081FF05C08BE16091030146EE04C08BE115
:1031B0006091030149EC0E9482058091560185FFD0
:1031C0000EC08091E70180FD08C08091570182FF09
:1031D00004C08091550183FD02C00E945F0A809166
:1031E000E70180FFD8C080915601C0915901D0916C
:1031F0005A0181FF37C06091AD017091AE0180919D
:10320000AF019091B00128EE33E040E050E00E9421
:103210003E1D8091A2019091A301AA2797FDA09540
:10322000BA2F281B390B4A0B5B0BCE01AA2797FD3F
:10323000A095BA2F82179307A407B50754F560919C
:10324000AD017091AE018091AF019091B00128EE77
:1032500033E040E050E00E943E1D30935A0120933D
:10326000590117C08091D7019091D80164E170E0B5
:103270000E94091DC617D70764F48091D701909169
:10328000D80164E170E00E94091D70935A016093B7
:1032900059012091DE013091DF0180915B01909115
:1032A0005C018217930740F48091DE019091DF0169
:1032B00090935C0180935B012091D0013091D1010A
:1032C00080915D0190915E018217930740F4809197
:1032D000D0019091D10190935E0180935D01909116
:1032E000DD0180911001981720F48091DD01809319
:1032F00010012091DB013091DC0180915F01909100
:1033000060018217930740F48091DB019091DC010A
:103310009093600180935F018091570180FF10C0FE
:103320008091550186FD0CC020917C0130917D017A
:1033300080917E0190917F018217930764F527C0E9
:103340008091550186FF27C08091F2019091F30191
:103350009C0173E0220F331F7A95E1F7880F991FC4
:10336000280F391F80917E0190917F01821793076A
:1033700090F48091F2019091F3019C0153E0220FAF
:10338000331F5A95E1F7880F991F280F391F309383
:103390007F0120937E018091E6018093010180915D
:1033A000DD01809300018091E701809361018091AC
:1033B000E801809392011092520180E090E0DF9149
:1033C000CF911F910F91FF90EF9008950F931F934E
:1033D0008091550180FD03C00E946605DBC180918C
:1033E000570181FD3BC084E0609102014BEC0E94DB
:1033F00082058FE0609102014CEC0E9482058AE117
:10340000609102014CEC0E94820580E16091020112
:1034100040EB0E94820582E16091020142EB0E9432
:10342000820587E0609103014EE90E94820581E1F7
:103430006091030142ED0E9482058AE160910301DF
:1034400048EC0E9482058BE16091030149EC0E94E7
:103450008205809157018260809357012091DE019F
:103460003091DF0140E050E0CA01B901E3E0660FAE
:10347000771F881F991FEA95D1F7620F731F841F6A
:10348000951F2AEF30E040E050E00E941C1D81E0D3
:1034900060910201A90123E030E000E00E94DB0816
:1034A0008091D0019091D1016AE070E00E94F51CFA
:1034B000AB018CE06091020123E030E00E94DB0868
:1034C0008091D2019091D3012091E2013091E301EA
:1034D0001091020188599E4F821B930B68E671E0A0
:1034E0000E94091D0E94490A482F405681E1612F20
:1034F0000E9482058091D7019091D801893C910565
:103500003CF48091D7019091D80188539F4F94F457
:103510008091D7019091D80164E170E00E94091D6B
:10352000AB0186E16091020124E030E000E00E94FE
:10353000090811C08091D7019091D80162E070E034
:103540000E94091DAB0186E16091020123E030E099
:1035500000E00E9475064091D9015091DA018BE19B
:10356000609102010E94F50B8091E70180FF32C05B
:103570008091610180FD07C00E946605809157011E
:103580008D7F809357018091550181FF1DC08091EF
:103590005701909102016091030180FF06C04091A4
:1035A000E4012091E501625005C04091E4012091C1
:1035B000E5016150552747FD5095332727FD30958C
:1035C000892F8E5F0E94750A8091570184608093D5
:1035D00057010AC08091570182FF06C080915501B2
:1035E00083FF02C00E94A50C8091550182FF08C094
:1035F0004091D9015091DA018BE168E00E940E0EF2
:103600008091570180FF2BC02091030121508091B0
:103610007C0190917D016AE070E00E94091DAB0180
:1036200083E0622F23E030E000E00E943F0710912A
:10363000030111506091800170918101809182019C
:10364000909183012AE030E040E050E00E943E1D6E
:103650008AE0612FA90124E030E00E94090820914E
:10366000DD0182E06091030140915301009154011A
:103670000E94460C4091DD0183E06091030150E01F
:1036800023E030E000E00E943F078091DD0190914F
:103690005301981738F180910001981718F582E0CE
:1036A000609103014FE40E948E0583E06091030165
:1036B0004FE40E948E0584E0609103014FE40E9474
:1036C0008E0585E0609103014FE40E948E0586E03F
:1036D000609103014FE40E948E0587E06091030131
:1036E0004FE42AC08091DD01981740F580910001D8
:1036F000891720F582E06091030140E00E948E0569
:1037000083E06091030140E00E948E0584E06091B7
:10371000030140E00E948E0585E06091030140E0D6
:103720000E948E0586E06091030140E00E948E05B4
:1037300087E06091030140E00E948E054091DB012B
:103740005091DC018BE0609103010E94DC09409103
:10375000D60188E16091030150E022E030E000E012
:103760000E94DB088091E80182FF05C08BE1609137
:10377000030147EE0DC08091E80181FF05C08BE198
:103780006091030146EE04C08BE16091030149ECB6
:103790000E9482058091E70180FFD8C08091560188
:1037A0000091590110915A0181FF37C06091AD011C
:1037B0007091AE018091AF019091B00128EE33E09D
:1037C00040E050E00E943E1D8091A2019091A30133
:1037D000AA2797FDA095BA2F281B390B4A0B5B0B24
:1037E000C801AA2797FDA095BA2F82179307A407AF
:1037F000B50754F56091AD017091AE018091AF01B4
:103800009091B00128EE33E040E050E00E943E1D70
:1038100030935A012093590117C08091D70190919C
:10382000D80164E170E00E94091D0617170764F4CF
:103830008091D7019091D80164E170E00E94091D48
:1038400070935A01609359012091DE013091DF019C
:1038500080915B0190915C018217930740F4809105
:10386000DE019091DF0190935C0180935B012091D8
:10387000D0013091D10180915D0190915E0182175C
:10388000930740F48091D0019091D10190935E0113
:1038900080935D019091DD0180911001981720F4D3
:1038A0008091DD01809310012091DB013091DC01DA
:1038B00080915F01909160018217930740F480919D
:1038C000DB019091DC019093600180935F01809116
:1038D000570180FF10C08091550186FD0CC02091DA
:1038E0007C0130917D0180917E0190917F01821752
:1038F000930764F527C08091550186FF27C080910A
:10390000F2019091F3019C0173E0220F331F7A952D
:10391000E1F7880F991F280F391F80917E01909140
:103920007F018217930790F48091F2019091F30147
:103930009C0153E0220F331F5A95E1F7880F991F1E
:10394000280F391F30937F0120937E018091E6017B
:10395000809301018091DD01809300018091E70156
:10396000809361018091E80180939201109252014D
:1039700080E090E01F910F910895629FD001739FA6
:10398000F001829FE00DF11D649FE00DF11D929FFB
:10399000F00D839FF00D749FF00D659FF00D99273A
:1039A000729FB00DE11DF91F639FB00DE11DF91F5E
:1039B000BD01CF0111240895991B79E004C0991F1E
:1039C000961708F0961B881F7A95C9F78095089579
:1039D00087FB082E062687FD819567FD6195ECDF44
:1039E0000EF4919507FC81950895AA1BBB1B51E12C
:1039F00007C0AA1FBB1FA617B70710F0A61BB70B5F
:103A0000881F991F5A95A9F780959095BC01CD0103
:103A1000089597FB092E07260AD077FD04D0E5DF2D
:103A200006D000201AF4709561957F4F0895F6F73F
:103A3000909581959F4F0895A1E21A2EAA1BBB1B5A
:103A4000FD010DC0AA1FBB1FEE1FFF1FA217B3076A
:103A5000E407F50720F0A21BB30BE40BF50B661F80
:103A6000771F881F991F1A9469F760957095809544
:103A700090959B01AC01BD01CF01089597FB092EE4
:103A800005260ED057FD04D0D7DF0AD0001C38F42D
:103A900050954095309521953F4F4F4F5F4F08957A
:103AA000F6F790958095709561957F4F8F4F9F4F5A
:103AB0000895FB019F01E8944230C4F04532B4F40C
:103AC0004A3029F497FB1EF4909581959F4F642FFF
:103AD00077270E94F51C805D8A330CF0895D819305
:103AE000CB010097A1F716F45DE251931082C90152
:103AF0000C948F1DE199FECF9FBB8EBBE09A992756
:103B00008DB30895262FE199FECF9FBB8EBB2DBBB1
:103B10000FB6F894E29AE19A0FBE01960895DC017F
:103B2000FC01672F71917723E1F7329704C07C91F4
:103B30006D9370836291AE17BF07C8F30895F89430
:023B4000FFCFB5
:103B4200FFFF010E050500190500050A00190A000C
:103B5200FF4E4500452000534500532000535700B7
:103B62005720004E57004E20001101140117011A70
:103B7200011D01200123012601EA13FFFFE1E1E219
:0C3B8200E3E30178797A7B7CAC00017BE6
:00000001FF
