:100000000C94381C0C944A1C0C944A1C0C944A1CEA
:100010000C944A1C0C944A1C0C944A1C0C944A1CC8
:100020000C944A1C0C944A1C0C944A1C0C944A1CB8
:100030000C944A1C0C944A1C0C944A1C0C944A1CA8
:100040000C944A1C0C944A1C0C944A1C0C944A1C98
:100050000C944A1C0C944A1C0C944A1C0C944A1C88
:100060000C944A1C0C944A1C0C944A1C0C944A1C78
:100070005555555555555555555555555555555530
:100080005555555555555555555555555555555520
:100090005555555555555555555555555555555510
:1000A0005555555555555555555555555541555514
:1000B000285554A85552A85552A85550285555288A
:1000C00055552855552855552855552855552855C1
:1000D00054281552AA8552AA8554001555555555D0
:1000E000555554001552AA854AAAA12A80A82A1556
:1000F000284055285554A85552A1554A85552A15CA
:1001000054A85552A1554A80012AAAA82AAAA84053
:10011000000155555555555554001552AA854AAA02
:10012000A12A00A82855284155285540A8552AA19C
:10013000552AA15540A84155282855282A00A84AE3
:10014000AAA152AA855400155555555555555554D3
:1001500015555285554A85552A8554AA8552A2853A
:100160004A82852A12852802812AAAA82AAAA8409A
:100170000281555285555285555285555415555510
:10018000555555554000012AAAA82AAAA8280001B9
:100190002800152AAA852AAAA14000A85555285545
:1001A00055284155282855282A00A84AAAA152AA0C
:1001B0008554001555555555555554001552AA8569
:1001C0004AAAA12A00A82855282855412800152AFE
:1001D000AA852AAAA12800A82855282855282A0037
:1001E000A84AAAA152AA85540015555555555555EA
:1001F0004000012AAAA82AAAA84000285554A855B8
:1002000052A1554A85552A15552855552855552822
:100210005555285555285555285555285555415556
:1002200055555555555554001552AA854AAAA12A27
:1002300000A82855282855282A00A84AAAA14AAA71
:10024000A12A00A82855282855282A00A84AAAA18A
:1002500052AA8554001555555555555554001552FB
:10026000AA854AAAA12A00A82855282855282A0084
:10027000284AAAA852AAA854002841552828552837
:100280002A00A84AAAA152AA8554001555555555C9
:10029000555554001552AA854AAAA12A00A82855E6
:1002A00028285528285528285528285528285528ED
:1002B0002855282855282A00A84AAAA152AA8554B8
:1002C000001555555555555555415555285554AA60
:1002D0001552AA854A82A12A14A8285528285528EB
:1002E0002800282AAAA82AAAA828002828552828A9
:1002F00055282855284155415555555555554000C7
:10030000152AAA852AAAA12800A8285528285528F0
:100310002800A82AAAA12AAAA12800A82855282886
:1003200055282800A82AAAA12AAA854000155555B3
:100330005555555554001552AA854AAAA12A00A818
:1003400028552828554128555528555528555528AC
:1003500055552855412855282A00A84AAAA152AA2D
:10036000855400155555555555554001552AA855E4
:100370002AAA15280A852852A12854A828552828D1
:1003800055282855282855282854A82852A1280A35
:10039000852AAA152AA85540015555555555555534
:1003A0004000012AAAA82AAAA828000128555528F1
:1003B00055552800152AAA852AAA852800152855EA
:1003C000552855552800012AAAA82AAAA8400001A4
:1003D0005555555555554000012AAAA82AAAA828BE
:1003E00000012855552855552800152AAA852AAAFE
:1003F00085280015285555285555285555285555F3
:100400002855554155555555555555555400155276
:10041000AA854AAAA12A02A1285528285528285584
:1004200041284001282AA8282AA8284028285528F9
:100430002A00284AAAA852AAA85400015555555581
:1004400055554155412855282855282855282855BF
:10045000282855282800282AAAA82AAAA828002837
:100460002855282855282855282855282855284112
:10047000554155555555555554001552AA8552AA02
:10048000855428155528555528555528555528550E
:100490005528555528555528555528555428155231
:1004A000AA8552AA855400155555555555555540A0
:1004B00001552AA8552AA85542815552855552857D
:1004C000555285555285555285555285415285283C
:1004D00052852A0A854AAA1552A8555401555555E0
:1004E000555555554155412855282854A82852A1FD
:1004F000284A85282A1528A8552AA1552AA1552811
:10050000A855282A15284A852852A12854A82855D4
:100510002841554155555555555541555528555521
:100520002855552855552855552855552855552889
:1005300055552855552855552855552855552800A1
:10054000012AAAA82AAAA840000155555555555573
:100550004155412855282A14A82A82A82AAAA82841
:10056000AA28282828282828284128285528285516
:1005700028285528285528285528285528415541E8
:100580005555555555554155412855282A15282A60
:1005900085282A852828A12828A12828282828282D
:1005A00028284A28284A282852A82852A82854A887
:1005B0002855284155415555555555555400155206
:1005C000AA854AAAA12A00A82855282855282855CE
:1005D00028285528285528285528285528285528BA
:1005E0002A00A84AAAA152AA855400155555555566
:1005F00055554000152AAA852AAAA12800A82855E1
:10060000282855282800A82AAAA12AAA8528001542
:10061000285555285555285555285555285555417F
:10062000555555555555555554001552AA854AAA44
:10063000A12A00A8285528285528285528285528B3
:10064000284128282828282A28284AA82A02A14AF6
:10065000AAA852A828540141555555555555400052
:10066000152AAA852AAAA12800A82855282855288D
:100670002800A82AAAA12AAA8528A815282A152868
:100680004A852852A12854A8285528415541555536
:100690005555555554000552AAA14AAAA82A002822
:1006A0002855412855552A00154AAA8552AAA15411
:1006B00000A85555284155282800A82AAAA14AAAC9
:1006C000855000155555555555554000012AAAA885
:1006D0002AAAA8402801552855552855552855556A
:1006E00028555528555528555528555528555528C8
:1006F0005555285555285555415555555555555518
:100700004155412855282855282855282855282856
:10071000552828552828552828552828552828554B
:10072000282855282A00A84AAAA152AA85540015AB
:100730005555555555554155412855282855282872
:10074000552828552828552828552828552828551B
:10075000282855282A14A84A82A152AA8554AA15E5
:1007600055285555415555555555555541554128CF
:1007700055282855282855282855282855282841FF
:1007800028282828282828282828282828282828E9
:100790002AAAA84AAAA1528285541415555555551E
:1007A00055554155412855282855282855282A149B
:1007B000A84A82A152AA8554AA1554AA1552AA85FC
:1007C0004A82A12A14A828552828552828552841A6
:1007D000554155555555555541554128552828558C
:1007E000282855282855282855282A14A84A82A19F
:1007F00052AA8554AA15552855552855552855559A
:100800002855552855554155555555555555400070
:10081000012AAAA82AAAA84000285554A85552A1DE
:10082000554A85552A1554A85552A1554A85552A29
:1008300015552800012AAAA82AAAA8400001555542
:100840005555555555555555555554001552AA856C
:1008500052AAA15400A854002852AA284AAAA82A99
:1008600000A82855282855282A00A84AAAA852AA2C
:100870002854004155555555555541555528555500
:10088000285555284055282A1528AA852AA2A12A84
:1008900084A82A15282A15282A15282A84A82AA2D5
:1008A000A128AA85282A1541405555555555555515
:1008B00055555555555555555554001552AA854A07
:1008C000AAA12A00A8285528285528285541285586
:1008D000412855282A00A84AAAA152AA85540015E1
:1008E0005555555555555555415555285555285526
:1008F000012854A82852AA284A8AA82A12A82854AB
:10090000A82854A82854A82A12A84A8AA852AA2873
:1009100054A82855014155555555555555555555CA
:10092000555555555554001552AA854AAAA12A0075
:10093000A82800282AAAA82AAAA128000528550123
:100940002A00A84AAAA152AA855400155555555502
:100950005555555005554AA1552AA15528055028E9
:10096000054AAAA14AAAA150280555285555285537
:100970005528555528555528555528555528555508
:100980004155555555555555555555555555540081
:100990001552AA854AAAA12A00A82855282A00A8E3
:1009A0004AAAA852AA285400285055284A00A84A02
:1009B000AAA152AA8554001555555555555541556E
:1009C00055285555285555284055282A1528AA85B3
:1009D0002AA2A12A84A82A1528285528285528287B
:1009E000552828552828552828552841554155551A
:1009F0005555555555555555415555285555285515
:100A000055415554015552A85552A855542855558D
:100A10002855552855552855552A15554A85555256
:100A2000855554155555555554155552855552856E
:100A3000555415554015552A85552A8555428555D5
:100A40005285555285555285555285555285540AC1
:100A50008552AA1552A85554015555555555555509
:100A6000415555285555285555285541285528286C
:100A700054A82852A1284A85282A1528A8552AAA08
:100A8000152A8A852A12A12854A82855284155419B
:100A90005555555555555541555528555528555574
:100AA0002855552855552855552855552855552804
:100AB00055552855552855552855552855552855C7
:100AC0005528555541555555555555555555555517
:100AD000555555555541001528AA852AAAA12A28F9
:100AE000A828282828282828282828282828282806
:100AF0002828282828282828284141415555555577
:100B0000555555555555555555555541001528AA16
:100B1000852AAAA12A00A82855282855282855281A
:100B2000285528285528285528285528285528414B
:100B30005541555555555555555555555555555579
:100B40005554001552AA854AAAA12A00A82855285A
:100B50002855282855282855282855282A00A84AE5
:100B6000AAA152AA855400155555555555555555A8
:100B70005555555541001528AA852AAAA12A80A8AD
:100B80002A15282A15282A15282A80A82AAAA12841
:100B9000AA852800152855552855554155555555B0
:100BA0005555555555555555555554004152AA283A
:100BB0004AAAA82A02A82854A82854A82854A82A2F
:100BC00002A84AAAA852A8A8540128555528555544
:100BD0002855554155555555555555555555555506
:100BE000555555414015282A8528AAA12AA0A82A8A
:100BF00085282A15412855552855552855552855D5
:100C00005528555528555541555555555555555502
:100C100055555555555555555554001552AA854AA3
:100C2000AAA12A00A82A01284AA80150AA85410A97
:100C3000A12850A82A00A84AAAA152AA85540015A2
:100C400055555555555555415555285555285554C3
:100C5000281552AA8552AA85542815552855552875
:100C600055552855552855552855552A15554A8501
:100C70005552855554155555555555555555555538
:100C8000555555555541554128552828552828551D
:100C900028285528285528285528285528285528F3
:100CA0002A00A84AAAA152AA85540015555555559F
:100CB0005555555555555555555555415541285539
:100CC00028285528285528285528285528285528C3
:100CD0002A14A84A82A152AA8554AA155528555506
:100CE00041555555555555555555555555555555C8
:100CF0005541554128552828552828552828412848
:100D00002828282828282828282828282A28A84ABF
:100D1000AAA152828554141555555555555555550A
:100D2000555555555555554155412855282A14A80E
:100D30004A82A152AA8554AA1555285554AA15527B
:100D4000AA854A82A12A14A82855284155415555FB
:100D500055555555555555555555415541285528C5
:100D60002855282854A82854A82852A82A0AA84A4E
:100D7000AA2852A8285401285400A852AAA152AA6D
:100D80008554001555555555555555555555555579
:100D90005555554000012AAAA82AAAA84000A855DE
:100DA00052A1554A85552A1554A85552A1554A8035
:100DB000012AAAA82AAAA8400001555555555555FB
:100DC0005555555555055554A1555285554A1555F6
:100DD00028555528555528555528555528555528D1
:100DE00055552855554A155552855554A155550503
:100DF00055555555555555555554155552855554B8
:100E0000A155552855554A15554A15554A15554A5F
:100E100015554A15554A15554A1555285554A15585
:100E20005285555415555555555555555555555586
:100E30005555555555555555555555555555555562
:100E40005555555555555555555555555555555552
:100E5000555415555285555285555415555555556A
:100E6000555554001552AA854AAAA12A00A828550A
:100E7000284155285554A85552A1554A85552A153B
:100E800055285555415555415555285555285555C1
:100E9000415555555555555555555555555555412A
:100EA0005555285555285555415555555555555560
:100EB00055415555285555285554A15552855554D9
:100EC0001555555555555555555555555555555512
:100ED0005555555555415555285555285555415544
:100EE00055555555555555555555555555415555C6
:100EF0002855552855554155555555555555555510
:100F00005555555555555555555555555555555591
:100F10005555555555555555555555555555555581
:100F2000555555415555285555285554A155528567
:100F300055541555555555555155554855552A151E
:100F4000554A155552155552155548555551555533
:100F50005555555555555555555555555555555541
:100F60005555555555555555555555555555555531
:100F70005555555555555555415555285554A85510
:100F800052A1554A85552A1554A85552A1554A854E
:100F9000552A1555285555415555555555555555AD
:100FA0005555555455155214854A82A15284A15461
:100FB000852154852152148554551555555555553F
:100FC00055555555555555555555555555555555D1
:100FD00055555555555555555555555555555555C1
:100FE000555555555555555555555555000554AA02
:100FF000A154AAA15500055555555555555555555A
:101000005555555555555555555555555555555590
:1010100055555555055554A15552A1554A85552A42
:101020001554A85552A1554A85554A855552A15582
:1010300054A855552A15554A855552A15554A155C0
:1010400055055555555555555055554A15554A85CB
:101050005552A15554A855552A15554A855552A1A2
:101060005552A1554A85552A1554A85552A1554A9D
:1010700085554A1555505555555555555555555540
:101080005555555555005554AA155200854804210B
:1010900020A208220A08220208220A0820A22121EE
:1010A000048548550552002154AA8555001555550B
:1010B000555555555555555555556AAAAA55555620
:1010C000555956555959555965555A955559555566
:1010D000655555655555955555955556555559551B
:1010E00055555555555555555555555555555556AF
:1010F000555556555559555565555695556A555634
:101100009655695655555655555655555655555635
:10111000555556555556555555555555555555557D
:101120005555555559555559556AAAAA6555566587
:101130005556655556555556555559555559555544
:1011400065555565555595555655556955555555DA
:101150005555555555555555545555525555525546
:10116000554A55554A55554A55554A55554A555566
:101170004A55554A55554A55554A55555255555251
:1011800055555455555554001502AA81AAAAA8A828
:1011900002AAA154AA85552A85554085555515554D
:1011A0005515555515555585554085552A85552A4A
:1011B000A154AAA802A82AAAA140AA855555555506
:1011C00055555555551555551555551555551555CF
:1011D0005555555555555555555554000114AAA109
:1011E00014AAA11400011555555555555555555579
:1011F00055555554005502AA54AAAA52A80052A106
:10120000554A85554A85554A85554A15554A1555B5
:101210004A15554A85554A85554A855552A1555214
:10122000A800542AAA5540A8555554015552A8550E
:101230004AAA152A2A152A4A85284A852A4A852A29
:101240004A852A52854A4A85504A85554A85004A28
:10125000852A2A152AAA152AA0554A05555000059F
:1012600055AAA055AAAA15002A85154A8515500524
:10127000815555A80155AAA855AAAA150AAA8550AC
:101280002A85554A85155285154A85800A85AAAA58
:1012900015AAA0554000014AAAA84AAAAA4A000ACB
:1012A0004A15524A15524A15544A15544A15554A78
:1012B00015554A15554A15544A15544A15524A159A
:1012C000524A000A4AAAAA4AAAA055555515555588
:1012D000855555A15555A15555A85555A85555A8FD
:1012E0005555285555285555285555A85555A8558F
:1012F00055A85555A15555A15555855555155555C3
:101300005555555555555005504AA1522828522833
:101310002852284852284852284A12284A12284A55
:1013200012284A122848522848522828522828525F
:101330004AA152500550550015555555001500AAA3
:10134000052A82852882852884A12884A12882A153
:101350002882852AAA85288015288555288555281C
:1013600085552885552885552A05550055555555C7
:101370005555010140A1214A01284A55284A5528BE
:101380002A55282A012A2AA12A2A0128AA5528AA48
:1013900055282A55282A55282A00282AA8284A00EC
:1013A000004055550155555514005512AA05128295
:1013B000851282851284A112840112805510AA150B
:1013C000140A851552851002851284A11282851295
:1013D000828510AA0515005555555555555550058A
:1013E000504AA152282852282852284852284852A8
:1013F000284A12284A12284A12284A1228485228F3
:1014000048522828522828524AA154500555000510
:101410005555555504010084A12A84A12884A1288A
:1014200084A12884A12884A12884A12A84A12884B5
:10143000A12884A128848528828528828528AA0558
:1014400028001500400005555555055500A054AA23
:101450002852800852844A12852852852852858154
:1014600052852852852852854852854A12844A124C
:10147000844A12804A102A401540555555555555F5
:10148000154000814AA8A14A00A14A15214A152801
:101490004A15004A00554AA8004A00284A15214A20
:1014A00015A14A15A14A15A14A00854AA815400070
:1014B00055555555555555555556555556555556D9
:1014C0005555565555565555569555566955565672
:1014D0005556559556556556555556555556555567
:1014E00056555555555555555555555555555555AB
:1014F00056555556555556556AAAAA5556555556D8
:101500005555565555565555565555595555595580
:101510005565555595555A55555555555555555526
:10152000555555555555555555555556AAA55555C5
:10153000555555555555555555555555555555555B
:101540005555555555555555555555556AAAAA558C
:10155000555555555555555555555555555555553B
:101560005556AAA955555955555955555955956525
:101570005565655559955556555556555559955571
:10158000A5655A55595555555555555555555555A2
:10159000555569555556555555555AAAA955556528
:1015A000555595555655555A555569A556995969E4
:1015B00059565559555559555559555555555555CA
:1015C00055555555555555555555555559555559C3
:1015D0005555595555595555655555655555955553
:1015E00055955556555559555565555595555A5511
:1015F000555555555555555555555555555555559B
:10160000556595556595556565559565559565552A
:101610009565565559565559565559595556595512
:101620005659555665555655555555555555555553
:10163000555555655555655555655555655555650A
:1016400055A96AAA5565555565555565555565554C
:101650005565555565555559555656AAA95555556B
:101660005555555555555555555555555555556A15
:10167000AAA9555559555559555559555559555561
:101680006555556555559555559555565555695555
:1016900056955555555555555555555555555555B9
:1016A000555555555555955555A555566555565944
:1016B0005559565559565565559555556555556560
:1016C00055555955555655555555555555555555C5
:1016D00055555559555559556AAAAA5559555559EB
:1016E000555559555559555659655659655959596C
:1016F0005959595959596559565559555559555565
:101700005555555555555555555555555555555589
:10171000556AAAAA555556555556555559555559B0
:10172000565565559595556A5555595555565555BE
:101730005595555565555555555555555555555509
:10174000555555555555555AA555555A555555A59F
:101750005555555AA555555A555555A5555555558F
:1017600055555AA555555A555555A555555555557F
:101770005555555555555555555555595555595511
:101780005565555565555595555595555596555627
:101790005595565595595565595AA56AA5595555A2
:1017A00056555555555555555555555555555559E4
:1017B000555559555559555565559565556965554D
:1017C000569555559555566555565955595655651D
:1017D0005556955569555555555555555555555564
:1017E0005555555555555AAAA955655555655555DB
:1017F00065555565556AAAAA55655555655555658A
:1018000055556555556555556555555AA9555555FF
:101810005555555555555555555555555555555578
:101820005555555555555555555555555555555568
:101830005555415555285554AA1552AA854AAAA16D
:101840002AAAA800000055555555555555555555CA
:10185000555555555555415555285554AA1552AA13
:10186000854AAAA12AAAA800000055285554AA15FD
:1018700052AA854AAAA12AAAA800000055285554B0
:10188000AA1552AA854AAAA12AAAA800000055288A
:101890005554AA1552AA854AAAA12AAAA80000004E
:1018A00055285554AA1552AA854AAAA12AAAA800C1
:1018B000000055005554001550000540000100007F
:1018C000000000005500555400155000054000016F
:1018D0000000000000005500555400155000054060
:1018E00000010000000000000000000000004000B7
:1018F000015000055400155500550000000000007F
:10190000400001500005540015550055000000002E
:10191000000040000150000554001555005500001E
:10192000002AAAA84AAAA152AA8554AA1555285540
:101930000000002AAAA84AAAA152AA8554AA1555AD
:1019400028550000002AAAA84AAAA152AA8554AA8A
:10195000155528550000002AAAA84AAAA152AA850E
:1019600054AA155528550000002AAAA84AAAA1522F
:10197000AA8554AA155528555541555555555555BF
:10198000555555555555555555550000002AAAA889
:101990004AAAA152AA8554AA15552855554155550C
:1019A00055555555555555555555555555555555E7
:1019B00055555555555555555555555555555555D7
:1019C0004000012AAAA82AAAA84000015555555549
:1019D00055555555555555555555555555555555B7
:1019E00055555555555555555555555555555555A7
:1019F0005555555555555555555555555555555597
:101A000055554000012AAAA82AAAA8400001555508
:101A10005555555555555555555555555555555576
:101A20005555555555555555555555555555555566
:101A30005555555555555555555555555555555556
:101A4000554000012AAAA82AAAA8400001555555C8
:101A50005555555555555555555555555555555536
:101A60005555555555555555555555555555555526
:101A70005555555555555555555555555555555516
:101A80004000012AAAA82AAAA84000015555555588
:101A900055555555555555555555555555555555F6
:101AA00055555555555555555555555555555555E6
:101AB00055555555555555555555555555555555D6
:101AC00055554000012AAAA82AAAA8400001555548
:101AD000555555555555550001552AA155222155A5
:101AE0002221550000555528555522155528555584
:101AF00020155520855500805554A85554885554B7
:101B00008855541055555555555555555555555598
:101B10005555555555555555555555555555555575
:101B200055555555555040554A4855202A15284871
:101B300055214855214855455155555559555596A6
:101B400055556555655555655555AAAA5595565629
:101B50005556595556655559555559555559555513
:101B600065555565555595556A555A95555555556B
:101B70005555554555552155552155552015552235
:101B8000155528005522285504221555285555204D
:101B9000155520855500805554A8555488555488AE
:101BA000555410555555555555555555555555552B
:101BB00055555555555555555555555555555A55D0
:101BC000956096258A28898A22256088955A2295CB
:101BD00058882562228988A289625825555555550D
:101BE000555555555555555555555555555522220B
:101BF000009554A8155528955488155212954854A7
:101C00001521568485542215562855542A155600F8
:101C1000888855555555555555555555555555550E
:101C20005555655555895556225558A89562AA258A
:101C300058A89556225555895555655555555555AC
:101C400055555555555555554000552AAA152082CC
:101C50001520821521121544045542A055480855F7
:101C60004AA8554808554848555151554855554872
:101C700000554AA85548085548485551515555559D
:101C80005555695556829558282562AA898AAAA26F
:101C90002AAA08282828AA00AAAA82AA2AAAA82A20
:101CA000AAA88AAAA262AA895828255682955569A7
:101CB00055555555555555AAAAAA0000000A8280C7
:101CC0000082200282200082200A82800000000A16
:101CD00088000800000A0888080820080888000012
:101CE00000AAAAAA5555555555555055554A15554A
:101CF0002085552085552A855520855520855545B3
:101D0000155554855554855554855554810154A80D
:101D1000A855012155552155552155552155554554
:101D20004545552121552121552121552121554830
:101D3000855552005554AA1554805554A8555481C0
:101D40001554808554AA8555008555548555548071
:101D50005554AA5555005555554015552A05552039
:101D600085552085552085552A005540AA15548053
:101D70005554AA1554021554AA01550AA855508164
:101D80005554855554855554855555154000552A4B
:101D9000AA1520821520821520821521121545547E
:101DA000554000552AAA152AAA154000555001553C
:101DB0004AA8554800554AA8554008554AA85550C4
:101DC00001555A95556025558209558989558209CD
:101DD000556025555A955555555555555555555593
:101DE00055555555555555555555555555555555A3
:101DF0005555555555555555555555555555555593
:101E00005555555555555555555555555555555582
:101E10005555555555555555554000552AAA152027
:101E20008215208215208215211215455455000077
:101E3000005895556225558A8AA9020009A2288969
:101E400062288A6228806228A862288862288862BC
:101E50002888A228000202AA8A8955622555589529
:101E60005500000055565555589555589555A89507
:101E700056009558A89558989558A8955600955588
:101E8000AA5565555989556289146288822282AAA9
:101E90008288822289146265555955AA5555825502
:101EA000558255558255AA82AA8000028AAAA28824
:101EB00028228A82A288AA228A00A2800002AAAAD4
:101EC000AA60280962A8A962A8256028A56AAA951F
:101ED00054001540AA014A82A14800214800214827
:101EE00000214800214800214800214800214800E5
:101EF00021480021480021480021480021480021B4
:101F00004AAAA140000154001540AA014A82A14AF0
:101F100082A14800214800214800214800214800B2
:101F20002148002148002148002148002148002183
:101F30004800214800214AAAA14000015400154050
:101F4000AA014A82A14A82A14AAAA14800214800C6
:101F50002148002148002148002148002148002153
:101F60004800214800214800214800214AAAA140F8
:101F7000000154001540AA014A82A14A82A14AAA3E
:101F8000A14AAAA148002148002148002148002177
:101F900048002148002148002148002148002148EC
:101FA00000214AAAA140000154001540AA014A821A
:101FB000A14A82A14AAAA14AAAA14AAAA1480021EB
:101FC00048002148002148002148002148002148BC
:101FD00000214800214800214AAAA14000015400E4
:101FE0001540AA014A82A14A82A14AAAA14AAAA1ED
:101FF0004AAAA14AAAA14800214800214800214834
:1020000000214800214800214800214800214AAA17
:10201000A140000154001540AA014A82A14A82A1B0
:102020004AAAA14AAAA14AAAA14AAAA14AAAA1487F
:102030000021480021480021480021480021480093
:10204000214800214AAAA140000154001540AA01DC
:102050004A82A14A82A14AAAA14AAAA14AAAA14A9D
:10206000AAA14AAAA14AAAA14800214800214800E1
:10207000214800214800214800214AAAA14000012E
:1020800054001540AA014A82A14A82A14AAAA14A43
:10209000AAA14AAAA14AAAA14AAAA14AAAA14AAAAD
:1020A000A148002148002148002148002148002182
:1020B0004AAAA140000154001540AA014A82A14A3F
:1020C00082A14AAAA14AAAA14AAAA14AAAA14AAAA5
:1020D000A14AAAA14AAAA14AAAA1480021480021CE
:1020E0004800214800214AAAA1400001540015409F
:1020F000AA014A82A14A82A14AAAA14AAAA14AAA3D
:10210000A14AAAA14AAAA14AAAA14AAAA14AAAA145
:102110004AAAA14800214800214800214AAAA1401A
:10212000000154001540AA014A82A14A82A14AAA8C
:10213000A14AAAA14AAAA14AAAA14AAAA14AAAA115
:102140004AAAA14AAAA14AAAA14AAAA1480021488A
:1021500000214AAAA140000154001540AA014A8268
:10216000A14A82A14AAAA14AAAA14AAAA14AAAA10D
:102170004AAAA14AAAA14AAAA14AAAA14AAAA14A2C
:10218000AAA14AAAA14800214AAAA14000015400DC
:102190001540AA014A82A14A82A14AAAA14AAAA13B
:1021A0004AAAA14AAAA14AAAA14AAAA14AAAA14AFC
:1021B000AAA14AAAA14AAAA14AAAA14AAAA14AAA8C
:1021C000A140000155555555555555555555555531
:1021D00055555555555555555555555555555555AF
:1021E000555545455521215521215521215521215F
:1021F0005508815542055550155555555555555558
:10220000555555555555555555555555555555557E
:1022100055555555555555555015554A85552021F7
:10222000552021552AA15520215521215545455597
:102230005555555569555682955828256282898A83
:1022400082A22A82A82A82A8AA82AAAA82AA2AAA42
:10225000A82AAAA88AAAA262AA89582825568295DD
:102260005569555555555555555569555682955885
:10227000282562AA098AA8222AA0A82AA0A8AA8298
:10228000AAAA82AA2AAAA82AAAA88AAAA262AA896B
:1022900058282556829555695555555555555555C6
:1022A000695556829558282562AA898AAA022AA8C1
:1022B000082AA028AA80AAAA82AA2AAAA82AAAA882
:1022C0008AAAA262AA895828255682955569555529
:1022D000555555555555695556829558282562AA24
:1022E000898AAAA22AAA802AA808AA802AAA82AA37
:1022F0002AAAA82AAAA88AAAA262AA895828255680
:1023000082955569555555555555555569555682BA
:102310009558282562AA898AAAA22AAAA82AAAA820
:10232000AA8002AA80022AAAA82AAAA88AAAA26225
:10233000AA8958282556829555695555555555559C
:102340005555695556829558282562AA898AAAA2A8
:102350002AAAA82AAAA8AA82AAAA802A2AA8082A57
:10236000AA808AAAA262AA89582825568295556908
:1023700055555555555555556955568295582825E5
:1023800062AA898AAAA22AAAA82AAAA8AA82AAAA6A
:1023900080AA2AA0282AA8088AAA0262AA895828FC
:1023A0002556829555695555555555555555695577
:1023B00056829558282562AA898AAAA22AAAA82AFA
:1023C000AAA8AA82AAAA82AA2AA0A82AA0A88AA8F9
:1023D0002262AA09582825568295556955555555A2
:1023E00055555555695556829558282562AA898AAA
:1023F000AAA22AAAA82AAAA8AA82AAAA82AA2A8241
:10240000A82A82A88A82A2628289582825568295A3
:1024100055695555555555555555695556829558D3
:10242000282562AA898AAAA22AAAA82AAAA8AA82D0
:10243000AAAA82AA2A0AA82A0AA8882AA260AA897D
:102440005828255682955569555555555555555514
:10245000695556829558282562AA898AAAA22AAA6D
:10246000A82AAAA8AA82AAAA02AA280AA8202AA850
:1024700080AAA262AA895828255682955569555581
:10248000555555555555695556829558282562AA72
:10249000898AAAA22AAAA82AAAA8AA82AAA802AABB
:1024A000202AA802AAA88AAAA262AA895828255680
:1024B0008295556955555555555555556955568209
:1024C0009558282562AA898AAAA22AAAA82AAAA86F
:1024D0008002AA8002AA2AAAA82AAAA88AAAA26274
:1024E000AA895828255682955569555555555555EB
:1024F0005555695556829558282562AA898AAAA2F7
:1025000002AAA8202AA8A802AAAA82AA2AAAA82AB5
:10251000AAA88AAAA262AA8958282556829555692E
:102520005555555555555555695556829558282533
:1025300062AA8980AAA2202AA8280AA8AA02AAAA6E
:1025400082AA2AAAA82AAAA88AAAA262AA8958287C
:1025500025568295556955555555555555556955C5
:1025600056829558282560AA89882AA22A0AA82A6C
:102570000AA8AA82AAAA82AA2AAAA82AAAA88AAAD1
:10258000A262AA89582825568295556955555555F0
:1025900055555555555555555555555555555555EB
:1025A00055555555565555565555585555585555D3
:1025B00056555556555555555555555555555555C9
:1025C0005555555555555555555569555682955836
:1025D000282562AA898AAAA22AAAA82AAAA8AA821F
:1025E000AAAA82AA2AAAA82AAAA88AAAA262AA8908
:1025F0005828255682955569555555555555555563
:10260000555555555555555555555555555595553A
:10261000559555552555552555559555559555550A
:10262000555555555555555555555555555555555A
:10263000555555555555555555555555555555AAF5
:1026400055558255558255558255AA82AA80000259
:102650008AAAA28828228828228AAAA28AAAA280D4
:102660000002AAAAAA5555555555595555655555AF
:102670001555411555001554001550000540000131
:102680000AAAA04AA0214AA1214AA0214AAAA14AF5
:10269000AAA1480AA1484AA1484AA1400001000154
:1026A000552AA1552221552221550001555548553D
:1026B00055221554808554AA8554808554848555A7
:1026C00004055554855554805554A855548855547F
:1026D000885554005A95556025696209896282259A
:1026E00060A095582825560A095582825580A25522
:1026F00088025588A955889555889556082558AA61
:102700008962AAA26000025AAAA9554155552855C6
:1027100054AA1552AA855028055528555528550004
:102720000000AAAAAAAAAAAA000000555555555504
:102730005555555555555555555555555555555549
:1027400055555555415555285554AA1552AA8550E9
:102750002805552855000000AAAAAAAAAAAA00007E
:10276000005555555555555555555555555555556E
:102770005555555555555555555555555555555509
:10278000415555285554AA1552AA85000000AAAAF9
:10279000AAAAAAAA00000055555555555555555594
:1027A00055555555555555555555555555555555D9
:1027B000555555555555555555415555285554AAB6
:1027C00015000000AAAAAAAAAAAA000000555555F9
:1027D00055555555555555555555555555555555A9
:1027E0005555555555555555555555555555555599
:1027F00055555555555555000000AAAAAAAAAAAA8A
:102800000000005555555555555555555555555577
:102810005555555555555555555555555555555568
:102820005555555555555555555555555500000057
:10283000AAAAAAAAAAAA00000054AA155528555562
:10284000415555555555555555555555555555554C
:102850005555555555555555555555555555555528
:10286000555555000000AAAAAAAAAAAA000000521B
:10287000AA8554AA155528555541555555555555B0
:1028800055555555555555555555555555555555F8
:10289000555555555555555555000000AAAAAAAA93
:1028A000AAAA00000055285550280552AA8554AA06
:1028B0001555285555415555555555555555555549
:1028C000555555555555555555555555555555000D
:1028D0000000AAAAAAAAAAAA0000005528555528AD
:1028E0005550280552AA8554AA15552855554155C5
:1028F000AAAAAAAAAAAAAAAAAAAAAAAAAAAAAAAA38
:10290000AAAAAAAAAAAAAAAAAAAAAAAAAAAAAAAA27
:10291000AAAAAAAA55555555555555555555555513
:10292000555555555555AAAAAAAAAAAAAAAAAAAA05
:10293000AAAAAAAAAAAAAAAA55555555555555559F
:102940005555555555555555555555555555555537
:102950005555555555555555555555555555555527
:102960005555555555555555555555555555555517
:1029700055000000AAAAAAAAAAAAAAAAAAAAAAAA0A
:10298000AAAAAAAAAAAAAAAAAAAAAAAAAAAAAAAAA7
:10299000AAAAAAAAAAAAAAAAAAAAAAAAAAAAAAAA97
:1029A000AAAAAAAAAAAAAAAAAAAAAAAAAAAAAAAA87
:1029B00000000055555555555555555555555555C6
:1029C00055555555555555555555555555555555B7
:1029D00055555555555555555555555555555555A7
:1029E000555555555555555555555555AAAAAAAA43
:1029F000AAAAAAAAAAAAAAAAAAAAAAAAAAAA5555E1
:102A00005555555555555555555555555555555576
:102A1000AAAAAAAAAAAAAAAAAAAAAAAAAAAAAAAA16
:102A2000AAAAAAAAAAAAAAAAAAAAAAAAAAAAAAAA06
:102A3000AAAAAAAA5555554000014AAAA148282188
:102A40004888A14828A148A8A148A8214AAAA100CD
:102A500028002AAAA82000082222282888882222C2
:102A6000282800282AAAA800000055555555555574
:102A70005555555555555AAAA95955595955595944
:102A800055595955595955595AAAA9595559595528
:102A9000595955595955595955595AAAA95555551C
:102AA000555055554A15552A85552AA1554AA855B8
:102AB00052A85554AA55550955555255551A5551B0
:102AC000965518855488285482055520A1554815D7
:102AD00055528555541555555555555555555555BA
:102AE0005555555555455555215555A85555A1553B
:102AF000559815552A85554AA1554AA85552AA15E3
:102B000054AA1555285555415555555554AA855221
:102B10000021482A08608082620822622A22620814
:102B20002260888248080852082154484555485573
:102B3000554855554855554855554855552A1554E5
:102B4000AA85555555015555215555201555221520
:102B50005528155522155500001552AA1552221553
:102B60005222155000055554855554805554A8558A
:102B700054885554885554005555555555555555F7
:102B800055555555555555555555555555555555F5
:102B90005555555555555555555555550000152202
:102BA0008A1528A2152082152082150000155500CF
:102BB00055552855552855552855552855552855A6
:102BC00055285555285555285555285555285500EB
:102BD00028002AAAA80AAAA042AA8150AA05542815
:102BE000155500555555555555555555555555552A
:102BF0005555555555555555550000002AAAA82A32
:102C0000AAA80000005555555555555555555555CB
:102C10005555555555555555555555005554281527
:102C200050AA0542AA810AAAA02AAAA800280055EB
:102C30002855552855552855552855552855552852
:102C4000555528555528555528555528555500553D
:102C500055555554015552A8554802154852154826
:102C6000521548021552A8555401555555555555FC
:102C70005555555555555555555555555555555504
:102C80005555555555555414515282084822884877
:102C90002228482228528208541451554055552A5A
:102CA00015548885520821484808484A88485008E1
:102CB000521521548085552A155540554045112AF5
:102CC0002088202088282121212021212A214540D7
:102CD00045554055552A15548885520821484808BD
:102CE000484A88485008521521548085552A155560
:102CF00040555555555555555555555055054A143A
:102D0000A14A84A14A80A14AA0A10A28A08A28A297
:102D10000A0AA04A02A14A12A14A14A15055055517
:102D20005555555555555555555555555555555553
:102D30005555005554AA1552AA855280855285557D
:102D400002AA00A8AA8A00028052028552AA8550CF
:102D5000AA055500155555555555555555555555B3
:102D60005555555555555554001552AA8552AA85A5
:102D700052801552855502A800A2A8AA02800052CE
:102D8000805552AA8552AA8554001555555555555A
:102D90005555555555555555555555555550550538
:102DA0004A14A14A14A14A14A14A00A10A28A0A2C7
:102DB000288A022880528285528285528285540058
:102DC00015555555555555555555555555555555F3
:102DD00055555555555555555555555555455555B3
:102DE0002155012100A820AA012100552155554552
:102DF0005555555555555555555555555555555583
:102E00005555555555555555555555555555555572
:102E10005555555555555555000000AAAAAA00000C
:102E200000555555555555555555555555555555A7
:102E30005555555555555555555555555555555542
:102E400055555555555555155554854000A12AAA37
:102E5000A82AAAA84000A155548555551555555581
:102E60005555555555555555555555555555555512
:102E70005555555555554001552AA8554AA85552FE
:102E8000A8554AA8552A2854A84852A1514A855500
:102E90005215555455555555555555555555555526
:102EA0005555555555555555555555554155552813
:102EB0005554AA1552AA85542815552855552855F4
:102EC000552855552855552855552855554155557A
:102ED00055555555555555555555555555555555A2
:102EE000554001552AA8552AA1552A85552AA1558C
:102EF00028A855212A15454A855552A1555485556E
:102F000055155555555555555555555555555555B1
:102F10005555555555555555555555555554555562
:102F20005215554A00012AAAA82AAAA84A00015205
:102F30001555545555555555555555555555555582
:102F40005555555555555555555555555555555531
:102F50005555155554855552A1454A85212A1528A0
:102F6000A8552AA1552A85552AA1552AA8554001B8
:102F70005555555555555555555555555555555501
:102F8000555555554155552855552855552855558C
:102F9000285555285555285554281552AA8554AA00
:102FA0001555285555415555555555555555555552
:102FB00055555555555555555555555554555552C5
:102FC00015554A855552A15154A848552A28554AA5
:102FD000A85552A8554AA8552AA8554001555555F7
:102FE000555555555555555555000000AAAAAAAA3C
:102FF000AAAA0000005555555555555555555555D6
:103000005555555555555555555555555555555570
:103010005555555555555555555555555555555560
:103020005555555555555555555555555555555550
:1030300055000000AAAAAAAAAAAA00000055555540
:103040005555555555555555555555555555555530
:103050005555555555555555555555555555555520
:103060005555555555555555555555555555555510
:10307000555555555555555555000000AAAAAAAAAB
:10308000AAAA000000555555555555555555555545
:1030900055555555555555555555555555555555E0
:1030A0005555555555555555555555555555550025
:1030B0001400AA14AAAA82AA00AA00540015555501
:1030C00055555555555555555555555555555555B0
:1030D00055555555555555555555555555555500F5
:1030E00055002A14A84A82A152AA8554AA15552827
:1030F0005555415555051154A08854888854A0A8A9
:10310000548488448488211511A85555A155559893
:1031100015552A85554AA1554AA85552AA1554AAAB
:103120001555285555415555555555554155552811
:10313000555481555485555481455528215501A82C
:103140005488A154889814A82A84884AA0884AA838
:103150001152AA1554AA155528555541555555557E
:10316000555555555555555555555555555555550F
:1031700055555555550000002AAAA82AAAA80AAAFA
:10318000A052AA8554AA155528555541555555554F
:1031900055555555555555555555555555555555DF
:1031A00055555555555555555555550000002AAAA4
:1031B000A82AAAA80028005528554028012AAAA80C
:1031C0004AAAA152AA8554AA1555285555555555B0
:1031D000555555555555415555285554AA1552AA7A
:1031E000850AAAA02AAAA82AAAA80000005555550F
:1031F000555555555555555555555555555555557F
:10320000555555285554AA1552AA854AAAA12AAA45
:10321000A84028015528550028002AAAA82AAAA8AB
:10322000000000555555555555555555555555554D
:1032300055555555555555554000002AAAA820000A
:103240000021555521555521555521555521555587
:103250002155552155552155552155552155552156
:1032600055552155552155552155550155550000A8
:10327000012AAAA8000008555548555548555548F3
:10328000555548555548555548555548555548552F
:10329000554855554855554855554855554855551F
:1032A00048555540015555215555215555215555E0
:1032B00021555521555521555521555521555521F6
:1032C00055552155552155552155552155552155B2
:1032D000552000002AAAA8400000555540555548E1
:1032E00055554855554855554855554855554855CF
:1032F00055485555485555485555485555485555BF
:10330000485555485555480000082AAAA80000010C
:10331000555555555555555555555555555555555D
:103320005555554000552AA8552000552155552181
:103330005555215555215555215555215555215541
:1033400055215555015555555555555555555555B5
:1033500055555555555555550001552AA855000840
:10336000555548555548555548555548555548554E
:10337000554855554855554855554055550155558D
:103380002155552155552155552155552155552125
:1033900055552155552155552000552AA855400011
:1033A00055555555555555555555555555555555CD
:1033B0005555554055554855554855554855554806
:1033C0005555485555485555485555485500085583
:1033D0002AA855000155555555555555555555551E
:1033E0005555555555555555555555000001AAAAE1
:1033F000A820000822148822848822A08822A88875
:1034000022AA8822AA8822A88822A0882284882228
:103410001488200008AAAAA8000001555555555542
:1034200054555552555052554A10554A0A55502A2E
:103430005554A055028554A28554A2855502855540
:1034400054A055502A554A0A554A105550525555C0
:103450005255555015555585555585055504A15559
:10346000A0A155A805550A1555528055528A1552E6
:103470008A155280550A1555A80555A0A15504A1D5
:103480005585055585555515555555555555555021
:1034900055550A5554AA5552A0554A04554A145533
:1034A0002854552854552854552854554A14554ADB
:1034B000045552A05554AA55550A555550555555C1
:1034C000555555055555A05555AA1555AA8555AAC2
:1034D000A155AAA155AAA855AAA855AAA855AAA80F
:1034E00055AAA155AAA155AA8555AA1555A0555565
:1034F0000555555555555555415555285554A855BB
:103500005288400A082AA84820A14820A14820A1A2
:103510004820A14820A1482AA848400A08555288B6
:103520005554A8555528555541555555555155553E
:103530006855555A1554121552821544828520A09B
:103540008528208548208528208520A085448285DF
:10355000528215541215555A1555685555515555E1
:1035600055554000012AAAA8480021485521485530
:1035700021485521521485548215552855552855F2
:1035800054821552148548552148552148552148E3
:1035900000212AAAA84000015555555055555215ED
:1035A0005552855552A15552A85552AA1552AA8571
:1035B00052AAA152AAA852AA0052AA05520A85509C
:1035C0000A815552A15552A1555081555515555551
:1035D000555555555555555555555555555555559B
:1035E0005555555051514A0848208A28208888202E
:1035F00088882A8808208848208848208848208889
:1036000048451151555555555555555555555555CF
:103610005555555555555555554051512A08482031
:103620008A282088882088882A0808204848214835
:1036300048214848214848455151AAAAAAAAAAAAFD
:10364000AAAAAAAAAAAAAAAAAAAAAAAAAAAAAAAADA
:10365000AAAAAAAAAAAAAAAAAAAAAAAAAAAAAAAACA
:10366000AAAAAAAAAAAAAAAAAAAAAAAAAAAAAAAABA
:103670007000A600DC00120148017E01B401EA01DD
:10368000200256028C02C202F8022E0364039A033F
:10369000D00306043C047204A804DE0414054A05A1
:1036A0008005B605EC05220658068E06C406FA0605
:1036B000300766079C07D20708083E087408AA0866
:1036C000E00816094C098209B809EE09240A5A0AC9
:1036D000900AC60AFC0A320B680B9E0BD40B0A0C2C
:1036E000400C760CAC0CE20C180D4E0D840DBA0D8E
:1036F000F00D260E5C0E920EC80EFE0E340F6A0FF1
:10370000A00FD60F0C1042107810AE10E4101A1152
:1037100050118611BC11F21128125E129412CA12B5
:10372000001336136C13A213D8130E1444147A1416
:10373000B014E6141C1552158815BE15F4152A167A
:1037400060169616CC16021738176E17A417DA17DC
:10375000101846187C18B218E8181E1954198A193E
:10376000C019F6192C1A621A981ACE1A041B3A1BA1
:10377000701BA61BDC1B121C481C7E1CB41CEA1C04
:10378000201D561D8C1DC21DF81D2E1E641E9A1E66
:10379000D01E061F3C1F721FA81FDE1F14204A20C8
:1037A0008020B620EC20222158218E21C421FA212C
:1037B000302266229C22D22208233E237423AA238D
:1037C000E02316244C248224B824EE2424255A25F0
:1037D0009025C625FC25322668269E26D4260A2753
:1037E00040277627AC27E22718284E288428BA28B5
:1037F000F02826295C299229C829FE29342A6A2A18
:10380000A02AD62A0C2B422B782BAE2BE42B1A2C79
:10381000502C862CBC2CF22C282D5E2D942DCA2DDC
:10382000002E362E6C2EA22ED82E0E2F442F7A2F3D
:10383000B02FE62F1C3052308830BE30F4302A31A1
:1038400060319631CC31023238326E32A432DA3203
:10385000103346337C33B233E8331E3454348A3465
:10386000C034F6342C3562359835CE3504363A36C8
:1038700011241FBECFEFD4E0DEBFCDBF11E0A0E02A
:10388000B1E001C01D92A63CB107E1F70E94571CB0
:103890000C94EB1D0C944C1C1F920F920FB60F92C0
:1038A000112400000F900FBE0F901F9018951092DA
:1038B000B00181E080930C0189E180930E018AB30D
:1038C0008E628ABBD99ADA98DB98DD9A84B38F60CE
:1038D00084BBA898A998AA98AB9884B38F7084BB2E
:1038E00085B3806F85BBDD98DD9AAB9A80E197E266
:1038F00020E931E0F9013197F1F70197D9F7AB9859
:1039000080E060E00E94D41C0E94921D80910C0116
:1039100080FF06C080E068E00E94D41C8CE005C0F7
:1039200080E068E40E94D41C8EE080930F010E9426
:10393000F21C0E94F21C0E94FA1CA89AA99AAA9A48
:10394000AB9AFFCF161617061CF021E030E011C02D
:1039500021E030E008C0A901489F9001499F300D47
:10396000589F300D1124615070405FEF6F3F750715
:1039700091F7C901089527E030E0482F50E0CA01CF
:10398000022E02C0959587950A94E2F780FF02C047
:10399000DA9A01C0DA98DB9ADB98215030408FEF39
:1039A0002F3F380761F708951F93162FD9980E946B
:1039B000BB1C812F0E94BB1CD99A1F9108950F93A5
:1039C0001F93182F062F85E0692F0E94D41C86E0D4
:1039D000612F0E94D41C87E0602F0E94D41C1F918D
:1039E0000F91089584E064E40E94D41C80E78A95D6
:1039F000F1F70895EF92FF920F931F93CF93DF9308
:103A0000C3E0D0E062E0E62EF12C00E010E0970188
:103A1000220F331FC70145E0880F991F4A95E1F730
:103A2000821B930B8C0F9D1F2196602F0F5F1F4FE2
:103A30000E94DF1CCA31D10528F00894E11CF11C5A
:103A4000C3E0D0E081E00030180709F7DF91CF91A3
:103A50001F910F91FF90EF9008950F931F93CF93B5
:103A6000DF93982F162F072F89E0692F0E94D41C0F
:103A7000212F302FC901EC0110E08AE0612F0E9454
:103A8000D41C8BE069910E94D41C1F5F1633A9F7E8
:103A900088E060EA0E94D41C80EB94E020E931E0E9
:103AA000F9013197F1F70197D9F7DF91CF911F9184
:103AB0000F9108959D9B03C020E030E015C08AEF70
:103AC00090E020E931E0F9013197F1F70197D9F75A
:103AD00083B3282F30E085E0369527958A95E1F766
:103AE0002095309521703070C90108959C9B03C0CA
:103AF00020E030E015C08AEF90E020E931E0F901E4
:103B00003197F1F70197D9F783B3282F30E094E08C
:103B1000369527959A95E1F720953095217030706C
:103B2000C9010895AF92BF92CF92DF92EF92FF92B8
:103B30000F931F93CF93DF9320E7E22E26E3F22E1D
:103B400000E090EAC92E9FE0D92E80E9A82E81E0FE
:103B5000B82EAA9A89E0602F0E94D41CC601019752
:103B6000F1F7F701C591D49110E08AE0612F0E942E
:103B7000D41CC6010197F1F7FE012196E4918BE078
:103B80006E2F0E94D41CC6010197F1F71F5F1633F8
:103B900061F788E060EA0E94D41CAA9884EF91E063
:103BA000F5013197F1F70197D9F70F5F82E090E0C7
:103BB000E80EF91E90E7E91698E3F90609F0C9CF77
:103BC000DF91CF911F910F91FF90EF90DF90CF90F9
:0A3BD000BF90AF900895F894FFCF66
:00000001FF
